{
  "_format": "hh-sol-artifact-1",
  "contractName": "Pandemonium",
  "sourceName": "contracts/Pandemonium.sol",
  "abi": [
    {
      "inputs": [],
      "stateMutability": "nonpayable",
      "type": "constructor"
    },
    {
      "anonymous": false,
      "inputs": [
        {
          "indexed": true,
          "internalType": "address",
          "name": "owner",
          "type": "address"
        },
        {
          "indexed": true,
          "internalType": "address",
          "name": "approved",
          "type": "address"
        },
        {
          "indexed": true,
          "internalType": "uint256",
          "name": "tokenId",
          "type": "uint256"
        }
      ],
      "name": "Approval",
      "type": "event"
    },
    {
      "anonymous": false,
      "inputs": [
        {
          "indexed": true,
          "internalType": "address",
          "name": "owner",
          "type": "address"
        },
        {
          "indexed": true,
          "internalType": "address",
          "name": "operator",
          "type": "address"
        },
        {
          "indexed": false,
          "internalType": "bool",
          "name": "approved",
          "type": "bool"
        }
      ],
      "name": "ApprovalForAll",
      "type": "event"
    },
    {
      "anonymous": false,
      "inputs": [
        {
          "indexed": true,
          "internalType": "address",
          "name": "delegator",
          "type": "address"
        },
        {
          "indexed": true,
          "internalType": "address",
          "name": "fromDelegate",
          "type": "address"
        },
        {
          "indexed": true,
          "internalType": "address",
          "name": "toDelegate",
          "type": "address"
        }
      ],
      "name": "DelegateChanged",
      "type": "event"
    },
    {
      "anonymous": false,
      "inputs": [
        {
          "indexed": true,
          "internalType": "address",
          "name": "delegate",
          "type": "address"
        },
        {
          "indexed": false,
          "internalType": "uint256",
          "name": "previousBalance",
          "type": "uint256"
        },
        {
          "indexed": false,
          "internalType": "uint256",
          "name": "newBalance",
          "type": "uint256"
        }
      ],
      "name": "DelegateVotesChanged",
      "type": "event"
    },
    {
      "anonymous": false,
      "inputs": [
        {
          "indexed": true,
          "internalType": "bytes32",
          "name": "role",
          "type": "bytes32"
        },
        {
          "indexed": true,
          "internalType": "bytes32",
          "name": "previousAdminRole",
          "type": "bytes32"
        },
        {
          "indexed": true,
          "internalType": "bytes32",
          "name": "newAdminRole",
          "type": "bytes32"
        }
      ],
      "name": "RoleAdminChanged",
      "type": "event"
    },
    {
      "anonymous": false,
      "inputs": [
        {
          "indexed": true,
          "internalType": "bytes32",
          "name": "role",
          "type": "bytes32"
        },
        {
          "indexed": true,
          "internalType": "address",
          "name": "account",
          "type": "address"
        },
        {
          "indexed": true,
          "internalType": "address",
          "name": "sender",
          "type": "address"
        }
      ],
      "name": "RoleGranted",
      "type": "event"
    },
    {
      "anonymous": false,
      "inputs": [
        {
          "indexed": true,
          "internalType": "bytes32",
          "name": "role",
          "type": "bytes32"
        },
        {
          "indexed": true,
          "internalType": "address",
          "name": "account",
          "type": "address"
        },
        {
          "indexed": true,
          "internalType": "address",
          "name": "sender",
          "type": "address"
        }
      ],
      "name": "RoleRevoked",
      "type": "event"
    },
    {
      "anonymous": false,
      "inputs": [
        {
          "indexed": true,
          "internalType": "address",
          "name": "from",
          "type": "address"
        },
        {
          "indexed": true,
          "internalType": "address",
          "name": "to",
          "type": "address"
        },
        {
          "indexed": true,
          "internalType": "uint256",
          "name": "tokenId",
          "type": "uint256"
        }
      ],
      "name": "Transfer",
      "type": "event"
    },
    {
      "inputs": [],
      "name": "DEFAULT_ADMIN_ROLE",
      "outputs": [
        {
          "internalType": "bytes32",
          "name": "",
          "type": "bytes32"
        }
      ],
      "stateMutability": "view",
      "type": "function"
    },
    {
      "inputs": [],
      "name": "DOMAIN_SEPARATOR",
      "outputs": [
        {
          "internalType": "bytes32",
          "name": "",
          "type": "bytes32"
        }
      ],
      "stateMutability": "view",
      "type": "function"
    },
    {
      "inputs": [],
      "name": "MINTER_ROLE",
      "outputs": [
        {
          "internalType": "bytes32",
          "name": "",
          "type": "bytes32"
        }
      ],
      "stateMutability": "view",
      "type": "function"
    },
    {
      "inputs": [
        {
          "internalType": "address",
          "name": "to",
          "type": "address"
        },
        {
          "internalType": "uint256",
          "name": "tokenId",
          "type": "uint256"
        }
      ],
      "name": "approve",
      "outputs": [],
      "stateMutability": "nonpayable",
      "type": "function"
    },
    {
      "inputs": [
        {
          "internalType": "address",
          "name": "owner",
          "type": "address"
        }
      ],
      "name": "balanceOf",
      "outputs": [
        {
          "internalType": "uint256",
          "name": "",
          "type": "uint256"
        }
      ],
      "stateMutability": "view",
      "type": "function"
    },
    {
      "inputs": [
        {
          "internalType": "address",
          "name": "delegatee",
          "type": "address"
        }
      ],
      "name": "delegate",
      "outputs": [],
      "stateMutability": "nonpayable",
      "type": "function"
    },
    {
      "inputs": [
        {
          "internalType": "address",
          "name": "delegatee",
          "type": "address"
        },
        {
          "internalType": "uint256",
          "name": "nonce",
          "type": "uint256"
        },
        {
          "internalType": "uint256",
          "name": "expiry",
          "type": "uint256"
        },
        {
          "internalType": "uint8",
          "name": "v",
          "type": "uint8"
        },
        {
          "internalType": "bytes32",
          "name": "r",
          "type": "bytes32"
        },
        {
          "internalType": "bytes32",
          "name": "s",
          "type": "bytes32"
        }
      ],
      "name": "delegateBySig",
      "outputs": [],
      "stateMutability": "nonpayable",
      "type": "function"
    },
    {
      "inputs": [
        {
          "internalType": "address",
          "name": "account",
          "type": "address"
        }
      ],
      "name": "delegates",
      "outputs": [
        {
          "internalType": "address",
          "name": "",
          "type": "address"
        }
      ],
      "stateMutability": "view",
      "type": "function"
    },
    {
      "inputs": [
        {
          "internalType": "uint256",
          "name": "tokenId",
          "type": "uint256"
        }
      ],
      "name": "getApproved",
      "outputs": [
        {
          "internalType": "address",
          "name": "",
          "type": "address"
        }
      ],
      "stateMutability": "view",
      "type": "function"
    },
    {
      "inputs": [
        {
          "internalType": "uint256",
          "name": "blockNumber",
          "type": "uint256"
        }
      ],
      "name": "getPastTotalSupply",
      "outputs": [
        {
          "internalType": "uint256",
          "name": "",
          "type": "uint256"
        }
      ],
      "stateMutability": "view",
      "type": "function"
    },
    {
      "inputs": [
        {
          "internalType": "address",
          "name": "account",
          "type": "address"
        },
        {
          "internalType": "uint256",
          "name": "blockNumber",
          "type": "uint256"
        }
      ],
      "name": "getPastVotes",
      "outputs": [
        {
          "internalType": "uint256",
          "name": "",
          "type": "uint256"
        }
      ],
      "stateMutability": "view",
      "type": "function"
    },
    {
      "inputs": [
        {
          "internalType": "bytes32",
          "name": "role",
          "type": "bytes32"
        }
      ],
      "name": "getRoleAdmin",
      "outputs": [
        {
          "internalType": "bytes32",
          "name": "",
          "type": "bytes32"
        }
      ],
      "stateMutability": "view",
      "type": "function"
    },
    {
      "inputs": [
        {
          "internalType": "address",
          "name": "account",
          "type": "address"
        }
      ],
      "name": "getVotes",
      "outputs": [
        {
          "internalType": "uint256",
          "name": "",
          "type": "uint256"
        }
      ],
      "stateMutability": "view",
      "type": "function"
    },
    {
      "inputs": [
        {
          "internalType": "bytes32",
          "name": "role",
          "type": "bytes32"
        },
        {
          "internalType": "address",
          "name": "account",
          "type": "address"
        }
      ],
      "name": "grantRole",
      "outputs": [],
      "stateMutability": "nonpayable",
      "type": "function"
    },
    {
      "inputs": [
        {
          "internalType": "bytes32",
          "name": "role",
          "type": "bytes32"
        },
        {
          "internalType": "address",
          "name": "account",
          "type": "address"
        }
      ],
      "name": "hasRole",
      "outputs": [
        {
          "internalType": "bool",
          "name": "",
          "type": "bool"
        }
      ],
      "stateMutability": "view",
      "type": "function"
    },
    {
      "inputs": [
        {
          "internalType": "address",
          "name": "owner",
          "type": "address"
        },
        {
          "internalType": "address",
          "name": "operator",
          "type": "address"
        }
      ],
      "name": "isApprovedForAll",
      "outputs": [
        {
          "internalType": "bool",
          "name": "",
          "type": "bool"
        }
      ],
      "stateMutability": "view",
      "type": "function"
    },
    {
      "inputs": [],
      "name": "name",
      "outputs": [
        {
          "internalType": "string",
          "name": "",
          "type": "string"
        }
      ],
      "stateMutability": "view",
      "type": "function"
    },
    {
      "inputs": [
        {
          "internalType": "address",
          "name": "owner",
          "type": "address"
        }
      ],
      "name": "nonces",
      "outputs": [
        {
          "internalType": "uint256",
          "name": "",
          "type": "uint256"
        }
      ],
      "stateMutability": "view",
      "type": "function"
    },
    {
      "inputs": [
        {
          "internalType": "uint256",
          "name": "tokenId",
          "type": "uint256"
        }
      ],
      "name": "ownerOf",
      "outputs": [
        {
          "internalType": "address",
          "name": "",
          "type": "address"
        }
      ],
      "stateMutability": "view",
      "type": "function"
    },
    {
      "inputs": [
        {
          "internalType": "bytes32",
          "name": "role",
          "type": "bytes32"
        },
        {
          "internalType": "address",
          "name": "account",
          "type": "address"
        }
      ],
      "name": "renounceRole",
      "outputs": [],
      "stateMutability": "nonpayable",
      "type": "function"
    },
    {
      "inputs": [
        {
          "internalType": "bytes32",
          "name": "role",
          "type": "bytes32"
        },
        {
          "internalType": "address",
          "name": "account",
          "type": "address"
        }
      ],
      "name": "revokeRole",
      "outputs": [],
      "stateMutability": "nonpayable",
      "type": "function"
    },
    {
      "inputs": [
        {
          "internalType": "address",
          "name": "to",
          "type": "address"
        },
        {
          "internalType": "string",
          "name": "uri",
          "type": "string"
        }
      ],
      "name": "safeMint",
      "outputs": [],
      "stateMutability": "nonpayable",
      "type": "function"
    },
    {
      "inputs": [
        {
          "internalType": "address",
          "name": "from",
          "type": "address"
        },
        {
          "internalType": "address",
          "name": "to",
          "type": "address"
        },
        {
          "internalType": "uint256",
          "name": "tokenId",
          "type": "uint256"
        }
      ],
      "name": "safeTransferFrom",
      "outputs": [],
      "stateMutability": "nonpayable",
      "type": "function"
    },
    {
      "inputs": [
        {
          "internalType": "address",
          "name": "from",
          "type": "address"
        },
        {
          "internalType": "address",
          "name": "to",
          "type": "address"
        },
        {
          "internalType": "uint256",
          "name": "tokenId",
          "type": "uint256"
        },
        {
          "internalType": "bytes",
          "name": "data",
          "type": "bytes"
        }
      ],
      "name": "safeTransferFrom",
      "outputs": [],
      "stateMutability": "nonpayable",
      "type": "function"
    },
    {
      "inputs": [
        {
          "internalType": "address",
          "name": "operator",
          "type": "address"
        },
        {
          "internalType": "bool",
          "name": "approved",
          "type": "bool"
        }
      ],
      "name": "setApprovalForAll",
      "outputs": [],
      "stateMutability": "nonpayable",
      "type": "function"
    },
    {
      "inputs": [
        {
          "internalType": "bytes4",
          "name": "interfaceId",
          "type": "bytes4"
        }
      ],
      "name": "supportsInterface",
      "outputs": [
        {
          "internalType": "bool",
          "name": "",
          "type": "bool"
        }
      ],
      "stateMutability": "view",
      "type": "function"
    },
    {
      "inputs": [],
      "name": "symbol",
      "outputs": [
        {
          "internalType": "string",
          "name": "",
          "type": "string"
        }
      ],
      "stateMutability": "view",
      "type": "function"
    },
    {
      "inputs": [
        {
          "internalType": "uint256",
          "name": "index",
          "type": "uint256"
        }
      ],
      "name": "tokenByIndex",
      "outputs": [
        {
          "internalType": "uint256",
          "name": "",
          "type": "uint256"
        }
      ],
      "stateMutability": "view",
      "type": "function"
    },
    {
      "inputs": [
        {
          "internalType": "address",
          "name": "owner",
          "type": "address"
        },
        {
          "internalType": "uint256",
          "name": "index",
          "type": "uint256"
        }
      ],
      "name": "tokenOfOwnerByIndex",
      "outputs": [
        {
          "internalType": "uint256",
          "name": "",
          "type": "uint256"
        }
      ],
      "stateMutability": "view",
      "type": "function"
    },
    {
      "inputs": [
        {
          "internalType": "uint256",
          "name": "tokenId",
          "type": "uint256"
        }
      ],
      "name": "tokenURI",
      "outputs": [
        {
          "internalType": "string",
          "name": "",
          "type": "string"
        }
      ],
      "stateMutability": "view",
      "type": "function"
    },
    {
      "inputs": [],
      "name": "totalSupply",
      "outputs": [
        {
          "internalType": "uint256",
          "name": "",
          "type": "uint256"
        }
      ],
      "stateMutability": "view",
      "type": "function"
    },
    {
      "inputs": [
        {
          "internalType": "address",
          "name": "from",
          "type": "address"
        },
        {
          "internalType": "address",
          "name": "to",
          "type": "address"
        },
        {
          "internalType": "uint256",
          "name": "tokenId",
          "type": "uint256"
        }
      ],
      "name": "transferFrom",
      "outputs": [],
      "stateMutability": "nonpayable",
      "type": "function"
    }
  ],
  "bytecode": "0x6101406040523480156200001257600080fd5b506040518060400160405280600581526020017f4c6f74746f0000000000000000000000000000000000000000000000000000008152506040518060400160405280600181526020017f31000000000000000000000000000000000000000000000000000000000000008152506040518060400160405280601181526020017f50616e64656d6f6e69756d2053717561640000000000000000000000000000008152506040518060400160405280600581526020017f4d41434157000000000000000000000000000000000000000000000000000000815250816000908051906020019062000103929190620003bf565b5080600190805190602001906200011c929190620003bf565b50505060008280519060200120905060008280519060200120905060007f8b73c3c69bb8fe3d512ecc4cf759cc79239f7b179b0ffacaa9a75d522b39400f90508260e081815250508161010081815250504660a08181525050620001888184846200021e60201b60201c565b608081815250503073ffffffffffffffffffffffffffffffffffffffff1660c08173ffffffffffffffffffffffffffffffffffffffff16815250508061012081815250505050505050620001e66000801b336200025a60201b60201c565b620002187f9f2df0fed2c77648de5860a4cc508cd0818c85b8b8a1ab4ceeef8d981c8956a6336200025a60201b60201c565b620005ac565b600083838346306040516020016200023b959493929190620004ea565b6040516020818303038152906040528051906020012090509392505050565b6200026c82826200034c60201b60201c565b62000348576001600b600084815260200190815260200160002060000160008373ffffffffffffffffffffffffffffffffffffffff1673ffffffffffffffffffffffffffffffffffffffff16815260200190815260200160002060006101000a81548160ff021916908315150217905550620002ed620003b760201b60201c565b73ffffffffffffffffffffffffffffffffffffffff168173ffffffffffffffffffffffffffffffffffffffff16837f2f8788117e7eff1d82e926ec794901d17c78024a50270940304540a733656f0d60405160405180910390a45b5050565b6000600b600084815260200190815260200160002060000160008373ffffffffffffffffffffffffffffffffffffffff1673ffffffffffffffffffffffffffffffffffffffff16815260200190815260200160002060009054906101000a900460ff16905092915050565b600033905090565b828054620003cd9062000576565b90600052602060002090601f016020900481019282620003f157600085556200043d565b82601f106200040c57805160ff19168380011785556200043d565b828001600101855582156200043d579182015b828111156200043c5782518255916020019190600101906200041f565b5b5090506200044c919062000450565b5090565b5b808211156200046b57600081600090555060010162000451565b5090565b6000819050919050565b62000484816200046f565b82525050565b6000819050919050565b6200049f816200048a565b82525050565b600073ffffffffffffffffffffffffffffffffffffffff82169050919050565b6000620004d282620004a5565b9050919050565b620004e481620004c5565b82525050565b600060a08201905062000501600083018862000479565b62000510602083018762000479565b6200051f604083018662000479565b6200052e606083018562000494565b6200053d6080830184620004d9565b9695505050505050565b7f4e487b7100000000000000000000000000000000000000000000000000000000600052602260045260246000fd5b600060028204905060018216806200058f57607f821691505b60208210811415620005a657620005a562000547565b5b50919050565b60805160a05160c05160e0516101005161012051615c93620005fc60003960006118de01526000611920015260006118ff015260006118340152600061188a015260006118b30152615c936000f3fe608060405234801561001057600080fd5b50600436106101f05760003560e01c80636352211e1161010f578063a22cb465116100a2578063d204c45e11610071578063d204c45e14610627578063d539139314610643578063d547741f14610661578063e985e9c51461067d576101f0565b8063a22cb465146105a3578063b88d4fde146105bf578063c3cda520146105db578063c87b56dd146105f7576101f0565b806391d14854116100de57806391d148541461050757806395d89b41146105375780639ab24eb014610555578063a217fddf14610585576101f0565b80636352211e1461044757806370a08231146104775780637ecebe00146104a75780638e539e8c146104d7576101f0565b80632f745c591161018757806342842e0e1161015657806342842e0e146103af5780634f6ccce7146103cb578063587cde1e146103fb5780635c19a95c1461042b576101f0565b80632f745c59146103155780633644e5151461034557806336568abe146103635780633a46b1a81461037f576101f0565b806318160ddd116101c357806318160ddd1461028f57806323b872dd146102ad578063248a9ca3146102c95780632f2ff15d146102f9576101f0565b806301ffc9a7146101f557806306fdde0314610225578063081812fc14610243578063095ea7b314610273575b600080fd5b61020f600480360381019061020a919061407f565b6106ad565b60405161021c91906140c7565b60405180910390f35b61022d6106bf565b60405161023a919061417b565b60405180910390f35b61025d600480360381019061025891906141d3565b610751565b60405161026a9190614241565b60405180910390f35b61028d60048036038101906102889190614288565b610797565b005b6102976108af565b6040516102a491906142d7565b60405180910390f35b6102c760048036038101906102c291906142f2565b6108bc565b005b6102e360048036038101906102de919061437b565b61091c565b6040516102f091906143b7565b60405180910390f35b610313600480360381019061030e91906143d2565b61093c565b005b61032f600480360381019061032a9190614288565b61095d565b60405161033c91906142d7565b60405180910390f35b61034d610a02565b60405161035a91906143b7565b60405180910390f35b61037d600480360381019061037891906143d2565b610a11565b005b61039960048036038101906103949190614288565b610a94565b6040516103a691906142d7565b60405180910390f35b6103c960048036038101906103c491906142f2565b610aef565b005b6103e560048036038101906103e091906141d3565b610b0f565b6040516103f291906142d7565b60405180910390f35b61041560048036038101906104109190614412565b610b80565b6040516104229190614241565b60405180910390f35b61044560048036038101906104409190614412565b610be9565b005b610461600480360381019061045c91906141d3565b610c03565b60405161046e9190614241565b60405180910390f35b610491600480360381019061048c9190614412565b610c8a565b60405161049e91906142d7565b60405180910390f35b6104c160048036038101906104bc9190614412565b610d42565b6040516104ce91906142d7565b60405180910390f35b6104f160048036038101906104ec91906141d3565b610d92565b6040516104fe91906142d7565b60405180910390f35b610521600480360381019061051c91906143d2565b610df1565b60405161052e91906140c7565b60405180910390f35b61053f610e5c565b60405161054c919061417b565b60405180910390f35b61056f600480360381019061056a9190614412565b610eee565b60405161057c91906142d7565b60405180910390f35b61058d610f5c565b60405161059a91906143b7565b60405180910390f35b6105bd60048036038101906105b8919061446b565b610f63565b005b6105d960048036038101906105d491906145e0565b610f79565b005b6105f560048036038101906105f0919061469c565b610fdb565b005b610611600480360381019061060c91906141d3565b6110df565b60405161061e919061417b565b60405180910390f35b610641600480360381019061063c91906147ca565b6110f1565b005b61064b61114d565b60405161065891906143b7565b60405180910390f35b61067b600480360381019061067691906143d2565b611171565b005b61069760048036038101906106929190614826565b611192565b6040516106a491906140c7565b60405180910390f35b60006106b882611226565b9050919050565b6060600080546106ce90614895565b80601f01602080910402602001604051908101604052809291908181526020018280546106fa90614895565b80156107475780601f1061071c57610100808354040283529160200191610747565b820191906000526020600020905b81548152906001019060200180831161072a57829003601f168201915b5050505050905090565b600061075c826112a0565b6004600083815260200190815260200160002060009054906101000a900473ffffffffffffffffffffffffffffffffffffffff169050919050565b60006107a282610c03565b90508073ffffffffffffffffffffffffffffffffffffffff168373ffffffffffffffffffffffffffffffffffffffff161415610813576040517f08c379a000000000000000000000000000000000000000000000000000000000815260040161080a90614939565b60405180910390fd5b8073ffffffffffffffffffffffffffffffffffffffff166108326112eb565b73ffffffffffffffffffffffffffffffffffffffff16148061086157506108608161085b6112eb565b611192565b5b6108a0576040517f08c379a0000000000000000000000000000000000000000000000000000000008152600401610897906149cb565b60405180910390fd5b6108aa83836112f3565b505050565b6000600880549050905090565b6108cd6108c76112eb565b826113ac565b61090c576040517f08c379a000000000000000000000000000000000000000000000000000000000815260040161090390614a5d565b60405180910390fd5b610917838383611441565b505050565b6000600b6000838152602001908152602001600020600101549050919050565b6109458261091c565b61094e8161173b565b610958838361174f565b505050565b600061096883610c8a565b82106109a9576040517f08c379a00000000000000000000000000000000000000000000000000000000081526004016109a090614aef565b60405180910390fd5b600660008473ffffffffffffffffffffffffffffffffffffffff1673ffffffffffffffffffffffffffffffffffffffff168152602001908152602001600020600083815260200190815260200160002054905092915050565b6000610a0c611830565b905090565b610a196112eb565b73ffffffffffffffffffffffffffffffffffffffff168173ffffffffffffffffffffffffffffffffffffffff1614610a86576040517f08c379a0000000000000000000000000000000000000000000000000000000008152600401610a7d90614b81565b60405180910390fd5b610a90828261194a565b5050565b6000610ae782600d60008673ffffffffffffffffffffffffffffffffffffffff1673ffffffffffffffffffffffffffffffffffffffff168152602001908152602001600020611a2c90919063ffffffff16565b905092915050565b610b0a83838360405180602001604052806000815250610f79565b505050565b6000610b196108af565b8210610b5a576040517f08c379a0000000000000000000000000000000000000000000000000000000008152600401610b5190614c13565b60405180910390fd5b60088281548110610b6e57610b6d614c33565b5b90600052602060002001549050919050565b6000600c60008373ffffffffffffffffffffffffffffffffffffffff1673ffffffffffffffffffffffffffffffffffffffff16815260200190815260200160002060009054906101000a900473ffffffffffffffffffffffffffffffffffffffff169050919050565b6000610bf36112eb565b9050610bff8183611b91565b5050565b600080610c0f83611ca5565b9050600073ffffffffffffffffffffffffffffffffffffffff168173ffffffffffffffffffffffffffffffffffffffff161415610c81576040517f08c379a0000000000000000000000000000000000000000000000000000000008152600401610c7890614cae565b60405180910390fd5b80915050919050565b60008073ffffffffffffffffffffffffffffffffffffffff168273ffffffffffffffffffffffffffffffffffffffff161415610cfb576040517f08c379a0000000000000000000000000000000000000000000000000000000008152600401610cf290614d40565b60405180910390fd5b600360008373ffffffffffffffffffffffffffffffffffffffff1673ffffffffffffffffffffffffffffffffffffffff168152602001908152602001600020549050919050565b6000610d8b600f60008473ffffffffffffffffffffffffffffffffffffffff1673ffffffffffffffffffffffffffffffffffffffff168152602001908152602001600020611ce2565b9050919050565b6000438210610dd6576040517f08c379a0000000000000000000000000000000000000000000000000000000008152600401610dcd90614dac565b60405180910390fd5b610dea82600e611a2c90919063ffffffff16565b9050919050565b6000600b600084815260200190815260200160002060000160008373ffffffffffffffffffffffffffffffffffffffff1673ffffffffffffffffffffffffffffffffffffffff16815260200190815260200160002060009054906101000a900460ff16905092915050565b606060018054610e6b90614895565b80601f0160208091040260200160405190810160405280929190818152602001828054610e9790614895565b8015610ee45780601f10610eb957610100808354040283529160200191610ee4565b820191906000526020600020905b815481529060010190602001808311610ec757829003601f168201915b5050505050905090565b6000610f37600d60008473ffffffffffffffffffffffffffffffffffffffff1673ffffffffffffffffffffffffffffffffffffffff168152602001908152602001600020611cf0565b7bffffffffffffffffffffffffffffffffffffffffffffffffffffffff169050919050565b6000801b81565b610f75610f6e6112eb565b8383611d5a565b5050565b610f8a610f846112eb565b836113ac565b610fc9576040517f08c379a0000000000000000000000000000000000000000000000000000000008152600401610fc090614a5d565b60405180910390fd5b610fd584848484611ec7565b50505050565b8342111561101e576040517f08c379a000000000000000000000000000000000000000000000000000000000815260040161101590614e18565b60405180910390fd5b60006110806110787fe48329057bfd03d55e49b547132e39cffd9c1820ad7b9d4c5307691425d15adf89898960405160200161105d9493929190614e38565b60405160208183030381529060405280519060200120611f23565b858585611f3d565b905061108b81611f68565b86146110cc576040517f08c379a00000000000000000000000000000000000000000000000000000000081526004016110c390614ec9565b60405180910390fd5b6110d68188611b91565b50505050505050565b60606110ea82611fc6565b9050919050565b7f9f2df0fed2c77648de5860a4cc508cd0818c85b8b8a1ab4ceeef8d981c8956a661111b8161173b565b60006111276010611ce2565b905061113360106120d9565b61113d84826120ef565b611147818461210d565b50505050565b7f9f2df0fed2c77648de5860a4cc508cd0818c85b8b8a1ab4ceeef8d981c8956a681565b61117a8261091c565b6111838161173b565b61118d838361194a565b505050565b6000600560008473ffffffffffffffffffffffffffffffffffffffff1673ffffffffffffffffffffffffffffffffffffffff16815260200190815260200160002060008373ffffffffffffffffffffffffffffffffffffffff1673ffffffffffffffffffffffffffffffffffffffff16815260200190815260200160002060009054906101000a900460ff16905092915050565b60007f7965db0b000000000000000000000000000000000000000000000000000000007bffffffffffffffffffffffffffffffffffffffffffffffffffffffff1916827bffffffffffffffffffffffffffffffffffffffffffffffffffffffff19161480611299575061129882612181565b5b9050919050565b6112a9816121fb565b6112e8576040517f08c379a00000000000000000000000000000000000000000000000000000000081526004016112df90614cae565b60405180910390fd5b50565b600033905090565b816004600083815260200190815260200160002060006101000a81548173ffffffffffffffffffffffffffffffffffffffff021916908373ffffffffffffffffffffffffffffffffffffffff160217905550808273ffffffffffffffffffffffffffffffffffffffff1661136683610c03565b73ffffffffffffffffffffffffffffffffffffffff167f8c5be1e5ebec7d5bd14f71427d1e84f3dd0314c0f7b2291e5b200ac8c7c3b92560405160405180910390a45050565b6000806113b883610c03565b90508073ffffffffffffffffffffffffffffffffffffffff168473ffffffffffffffffffffffffffffffffffffffff1614806113fa57506113f98185611192565b5b8061143857508373ffffffffffffffffffffffffffffffffffffffff1661142084610751565b73ffffffffffffffffffffffffffffffffffffffff16145b91505092915050565b8273ffffffffffffffffffffffffffffffffffffffff1661146182610c03565b73ffffffffffffffffffffffffffffffffffffffff16146114b7576040517f08c379a00000000000000000000000000000000000000000000000000000000081526004016114ae90614f5b565b60405180910390fd5b600073ffffffffffffffffffffffffffffffffffffffff168273ffffffffffffffffffffffffffffffffffffffff161415611527576040517f08c379a000000000000000000000000000000000000000000000000000000000815260040161151e90614fed565b60405180910390fd5b611534838383600161223c565b8273ffffffffffffffffffffffffffffffffffffffff1661155482610c03565b73ffffffffffffffffffffffffffffffffffffffff16146115aa576040517f08c379a00000000000000000000000000000000000000000000000000000000081526004016115a190614f5b565b60405180910390fd5b6004600082815260200190815260200160002060006101000a81549073ffffffffffffffffffffffffffffffffffffffff02191690556001600360008573ffffffffffffffffffffffffffffffffffffffff1673ffffffffffffffffffffffffffffffffffffffff168152602001908152602001600020600082825403925050819055506001600360008473ffffffffffffffffffffffffffffffffffffffff1673ffffffffffffffffffffffffffffffffffffffff16815260200190815260200160002060008282540192505081905550816002600083815260200190815260200160002060006101000a81548173ffffffffffffffffffffffffffffffffffffffff021916908373ffffffffffffffffffffffffffffffffffffffff160217905550808273ffffffffffffffffffffffffffffffffffffffff168473ffffffffffffffffffffffffffffffffffffffff167fddf252ad1be2c89b69c2b068fc378daa952ba7f163c4a11628f55a4df523b3ef60405160405180910390a4611736838383600161224e565b505050565b61174c816117476112eb565b612260565b50565b6117598282610df1565b61182c576001600b600084815260200190815260200160002060000160008373ffffffffffffffffffffffffffffffffffffffff1673ffffffffffffffffffffffffffffffffffffffff16815260200190815260200160002060006101000a81548160ff0219169083151502179055506117d16112eb565b73ffffffffffffffffffffffffffffffffffffffff168173ffffffffffffffffffffffffffffffffffffffff16837f2f8788117e7eff1d82e926ec794901d17c78024a50270940304540a733656f0d60405160405180910390a45b5050565b60007f000000000000000000000000000000000000000000000000000000000000000073ffffffffffffffffffffffffffffffffffffffff163073ffffffffffffffffffffffffffffffffffffffff161480156118ac57507f000000000000000000000000000000000000000000000000000000000000000046145b156118d9577f00000000000000000000000000000000000000000000000000000000000000009050611947565b6119447f00000000000000000000000000000000000000000000000000000000000000007f00000000000000000000000000000000000000000000000000000000000000007f00000000000000000000000000000000000000000000000000000000000000006122e5565b90505b90565b6119548282610df1565b15611a28576000600b600084815260200190815260200160002060000160008373ffffffffffffffffffffffffffffffffffffffff1673ffffffffffffffffffffffffffffffffffffffff16815260200190815260200160002060006101000a81548160ff0219169083151502179055506119cd6112eb565b73ffffffffffffffffffffffffffffffffffffffff168173ffffffffffffffffffffffffffffffffffffffff16837ff6391f5c32d9c69d2a47ea670b442974b53935d1edc7fd64eb21e047a839171b60405160405180910390a45b5050565b6000438210611a70576040517f08c379a0000000000000000000000000000000000000000000000000000000008152600401611a6790615059565b60405180910390fd5b6000611a7b8361231f565b90506000846000018054905090506000808290506005831115611afe576000611aa384612372565b84611aae91906150a8565b9050611abd886000018261246c565b60000160009054906101000a900463ffffffff1663ffffffff168563ffffffff161015611aec57809150611afc565b600181611af991906150dc565b92505b505b6000611b0f88600001868585612481565b905060008114611b6357611b3288600001600183611b2d91906150a8565b61246c565b60000160049054906101000a90047bffffffffffffffffffffffffffffffffffffffffffffffffffffffff16611b66565b60005b7bffffffffffffffffffffffffffffffffffffffffffffffffffffffff169550505050505092915050565b6000611b9c83610b80565b905081600c60008573ffffffffffffffffffffffffffffffffffffffff1673ffffffffffffffffffffffffffffffffffffffff16815260200190815260200160002060006101000a81548173ffffffffffffffffffffffffffffffffffffffff021916908373ffffffffffffffffffffffffffffffffffffffff1602179055508173ffffffffffffffffffffffffffffffffffffffff168173ffffffffffffffffffffffffffffffffffffffff168473ffffffffffffffffffffffffffffffffffffffff167f3134e8a2e6d97e929a7e54011ea5485d7d196dd5f0ba4d4ef95803e8e3fc257f60405160405180910390a4611ca08183611c9b866124f4565b612506565b505050565b60006002600083815260200190815260200160002060009054906101000a900473ffffffffffffffffffffffffffffffffffffffff169050919050565b600081600001549050919050565b6000808260000180549050905060008114611d4f57611d1e83600001600183611d1991906150a8565b61246c565b60000160049054906101000a90047bffffffffffffffffffffffffffffffffffffffffffffffffffffffff16611d52565b60005b915050919050565b8173ffffffffffffffffffffffffffffffffffffffff168373ffffffffffffffffffffffffffffffffffffffff161415611dc9576040517f08c379a0000000000000000000000000000000000000000000000000000000008152600401611dc09061517e565b60405180910390fd5b80600560008573ffffffffffffffffffffffffffffffffffffffff1673ffffffffffffffffffffffffffffffffffffffff16815260200190815260200160002060008473ffffffffffffffffffffffffffffffffffffffff1673ffffffffffffffffffffffffffffffffffffffff16815260200190815260200160002060006101000a81548160ff0219169083151502179055508173ffffffffffffffffffffffffffffffffffffffff168373ffffffffffffffffffffffffffffffffffffffff167f17307eab39ab6107e8899845ad3d59bd9653f200f220920489ca2b5937696c3183604051611eba91906140c7565b60405180910390a3505050565b611ed2848484611441565b611ede84848484612713565b611f1d576040517f08c379a0000000000000000000000000000000000000000000000000000000008152600401611f1490615210565b60405180910390fd5b50505050565b6000611f36611f30611830565b836128aa565b9050919050565b6000806000611f4e878787876128dd565b91509150611f5b816129c0565b8192505050949350505050565b600080600f60008473ffffffffffffffffffffffffffffffffffffffff1673ffffffffffffffffffffffffffffffffffffffff1681526020019081526020016000209050611fb581611ce2565b9150611fc0816120d9565b50919050565b6060611fd1826112a0565b6000600a60008481526020019081526020016000208054611ff190614895565b80601f016020809104026020016040519081016040528092919081815260200182805461201d90614895565b801561206a5780601f1061203f5761010080835404028352916020019161206a565b820191906000526020600020905b81548152906001019060200180831161204d57829003601f168201915b50505050509050600061207b612b2e565b90506000815114156120915781925050506120d4565b6000825111156120c65780826040516020016120ae92919061526c565b604051602081830303815290604052925050506120d4565b6120cf84612b45565b925050505b919050565b6001816000016000828254019250508190555050565b612109828260405180602001604052806000815250612bad565b5050565b612116826121fb565b612155576040517f08c379a000000000000000000000000000000000000000000000000000000000815260040161214c90615302565b60405180910390fd5b80600a6000848152602001908152602001600020908051906020019061217c929190613f70565b505050565b60007f780e9d63000000000000000000000000000000000000000000000000000000007bffffffffffffffffffffffffffffffffffffffffffffffffffffffff1916827bffffffffffffffffffffffffffffffffffffffffffffffffffffffff191614806121f457506121f382612c08565b5b9050919050565b60008073ffffffffffffffffffffffffffffffffffffffff1661221d83611ca5565b73ffffffffffffffffffffffffffffffffffffffff1614159050919050565b61224884848484612cea565b50505050565b61225a84848484612e4a565b50505050565b61226a8282610df1565b6122e15761227781612e67565b6122858360001c6020612e94565b6040516020016122969291906153ba565b6040516020818303038152906040526040517f08c379a00000000000000000000000000000000000000000000000000000000081526004016122d8919061417b565b60405180910390fd5b5050565b600083838346306040516020016123009594939291906153f4565b6040516020818303038152906040528051906020012090509392505050565b600063ffffffff801682111561236a576040517f08c379a0000000000000000000000000000000000000000000000000000000008152600401612361906154b9565b60405180910390fd5b819050919050565b6000808214156123855760009050612467565b60006001612392846130d0565b901c6001901b905060018184816123ac576123ab6154d9565b5b048201901c905060018184816123c5576123c46154d9565b5b048201901c905060018184816123de576123dd6154d9565b5b048201901c905060018184816123f7576123f66154d9565b5b048201901c905060018184816124105761240f6154d9565b5b048201901c90506001818481612429576124286154d9565b5b048201901c90506001818481612442576124416154d9565b5b048201901c90506124638182858161245d5761245c6154d9565b5b046131b1565b9150505b919050565b60008260005281602060002001905092915050565b60005b818310156124e957600061249884846131ca565b90508463ffffffff166124ab878361246c565b60000160009054906101000a900463ffffffff1663ffffffff1611156124d3578092506124e3565b6001816124e091906150dc565b93505b50612484565b819050949350505050565b60006124ff82610c8a565b9050919050565b8173ffffffffffffffffffffffffffffffffffffffff168373ffffffffffffffffffffffffffffffffffffffff16141580156125425750600081115b1561270e57600073ffffffffffffffffffffffffffffffffffffffff168373ffffffffffffffffffffffffffffffffffffffff161461262a576000806125d36131f084600d60008973ffffffffffffffffffffffffffffffffffffffff1673ffffffffffffffffffffffffffffffffffffffff1681526020019081526020016000206132069092919063ffffffff16565b915091508473ffffffffffffffffffffffffffffffffffffffff167fdec2bacdd2f05b59de34da9b523dff8be42e5e38e818c82fdb0bae774387a724838360405161261f929190615508565b60405180910390a250505b600073ffffffffffffffffffffffffffffffffffffffff168273ffffffffffffffffffffffffffffffffffffffff161461270d576000806126b661325284600d60008873ffffffffffffffffffffffffffffffffffffffff1673ffffffffffffffffffffffffffffffffffffffff1681526020019081526020016000206132069092919063ffffffff16565b915091508373ffffffffffffffffffffffffffffffffffffffff167fdec2bacdd2f05b59de34da9b523dff8be42e5e38e818c82fdb0bae774387a7248383604051612702929190615508565b60405180910390a250505b5b505050565b60006127348473ffffffffffffffffffffffffffffffffffffffff16613268565b1561289d578373ffffffffffffffffffffffffffffffffffffffff1663150b7a0261275d6112eb565b8786866040518563ffffffff1660e01b815260040161277f9493929190615586565b602060405180830381600087803b15801561279957600080fd5b505af19250505080156127ca57506040513d601f19601f820116820180604052508101906127c791906155e7565b60015b61284d573d80600081146127fa576040519150601f19603f3d011682016040523d82523d6000602084013e6127ff565b606091505b50600081511415612845576040517f08c379a000000000000000000000000000000000000000000000000000000000815260040161283c90615210565b60405180910390fd5b805181602001fd5b63150b7a0260e01b7bffffffffffffffffffffffffffffffffffffffffffffffffffffffff1916817bffffffffffffffffffffffffffffffffffffffffffffffffffffffff1916149150506128a2565b600190505b949350505050565b600082826040516020016128bf929190615681565b60405160208183030381529060405280519060200120905092915050565b6000807f7fffffffffffffffffffffffffffffff5d576e7357a4501ddfe92f46681b20a08360001c11156129185760006003915091506129b7565b60006001878787876040516000815260200160405260405161293d94939291906156c7565b6020604051602081039080840390855afa15801561295f573d6000803e3d6000fd5b505050602060405103519050600073ffffffffffffffffffffffffffffffffffffffff168173ffffffffffffffffffffffffffffffffffffffff1614156129ae576000600192509250506129b7565b80600092509250505b94509492505050565b600060048111156129d4576129d361570c565b5b8160048111156129e7576129e661570c565b5b14156129f257612b2b565b60016004811115612a0657612a0561570c565b5b816004811115612a1957612a1861570c565b5b1415612a5a576040517f08c379a0000000000000000000000000000000000000000000000000000000008152600401612a5190615787565b60405180910390fd5b60026004811115612a6e57612a6d61570c565b5b816004811115612a8157612a8061570c565b5b1415612ac2576040517f08c379a0000000000000000000000000000000000000000000000000000000008152600401612ab9906157f3565b60405180910390fd5b60036004811115612ad657612ad561570c565b5b816004811115612ae957612ae861570c565b5b1415612b2a576040517f08c379a0000000000000000000000000000000000000000000000000000000008152600401612b2190615885565b60405180910390fd5b5b50565b606060405180602001604052806000815250905090565b6060612b50826112a0565b6000612b5a612b2e565b90506000815111612b7a5760405180602001604052806000815250612ba5565b80612b848461328b565b604051602001612b9592919061526c565b6040516020818303038152906040525b915050919050565b612bb78383613363565b612bc46000848484612713565b612c03576040517f08c379a0000000000000000000000000000000000000000000000000000000008152600401612bfa90615210565b60405180910390fd5b505050565b60007f80ac58cd000000000000000000000000000000000000000000000000000000007bffffffffffffffffffffffffffffffffffffffffffffffffffffffff1916827bffffffffffffffffffffffffffffffffffffffffffffffffffffffff19161480612cd357507f5b5e139f000000000000000000000000000000000000000000000000000000007bffffffffffffffffffffffffffffffffffffffffffffffffffffffff1916827bffffffffffffffffffffffffffffffffffffffffffffffffffffffff1916145b80612ce35750612ce282613581565b5b9050919050565b612cf6848484846135eb565b6001811115612d3a576040517f08c379a0000000000000000000000000000000000000000000000000000000008152600401612d3190615917565b60405180910390fd5b6000829050600073ffffffffffffffffffffffffffffffffffffffff168573ffffffffffffffffffffffffffffffffffffffff161415612d8257612d7d816135f1565b612dc1565b8373ffffffffffffffffffffffffffffffffffffffff168573ffffffffffffffffffffffffffffffffffffffff1614612dc057612dbf858261363a565b5b5b600073ffffffffffffffffffffffffffffffffffffffff168473ffffffffffffffffffffffffffffffffffffffff161415612e0457612dff816137a7565b612e43565b8473ffffffffffffffffffffffffffffffffffffffff168473ffffffffffffffffffffffffffffffffffffffff1614612e4257612e418482613878565b5b5b5050505050565b612e558484836138f7565b612e61848484846139b7565b50505050565b6060612e8d8273ffffffffffffffffffffffffffffffffffffffff16601460ff16612e94565b9050919050565b606060006002836002612ea79190615937565b612eb191906150dc565b67ffffffffffffffff811115612eca57612ec96144b5565b5b6040519080825280601f01601f191660200182016040528015612efc5781602001600182028036833780820191505090505b5090507f300000000000000000000000000000000000000000000000000000000000000081600081518110612f3457612f33614c33565b5b60200101907effffffffffffffffffffffffffffffffffffffffffffffffffffffffffffff1916908160001a9053507f780000000000000000000000000000000000000000000000000000000000000081600181518110612f9857612f97614c33565b5b60200101907effffffffffffffffffffffffffffffffffffffffffffffffffffffffffffff1916908160001a90535060006001846002612fd89190615937565b612fe291906150dc565b90505b6001811115613082577f3031323334353637383961626364656600000000000000000000000000000000600f86166010811061302457613023614c33565b5b1a60f81b82828151811061303b5761303a614c33565b5b60200101907effffffffffffffffffffffffffffffffffffffffffffffffffffffffffffff1916908160001a905350600485901c94508061307b90615991565b9050612fe5565b50600084146130c6576040517f08c379a00000000000000000000000000000000000000000000000000000000081526004016130bd90615a07565b60405180910390fd5b8091505092915050565b600080600090506000608084901c11156130f257608083901c92506080810190505b6000604084901c111561310d57604083901c92506040810190505b6000602084901c111561312857602083901c92506020810190505b6000601084901c111561314357601083901c92506010810190505b6000600884901c111561315e57600883901c92506008810190505b6000600484901c111561317957600483901c92506004810190505b6000600284901c111561319457600283901c92506002810190505b6000600184901c11156131a8576001810190505b80915050919050565b60008183106131c057816131c2565b825b905092915050565b600060028284186131db9190615a27565b8284166131e891906150dc565b905092915050565b600081836131fe91906150a8565b905092915050565b6000806132468561324161321988611cf0565b7bffffffffffffffffffffffffffffffffffffffffffffffffffffffff16868863ffffffff16565b6139bd565b91509150935093915050565b6000818361326091906150dc565b905092915050565b6000808273ffffffffffffffffffffffffffffffffffffffff163b119050919050565b60606000600161329a84613a2b565b01905060008167ffffffffffffffff8111156132b9576132b86144b5565b5b6040519080825280601f01601f1916602001820160405280156132eb5781602001600182028036833780820191505090505b509050600082602001820190505b600115613358578080600190039150507f3031323334353637383961626364656600000000000000000000000000000000600a86061a8153600a8581613342576133416154d9565b5b049450600085141561335357613358565b6132f9565b819350505050919050565b600073ffffffffffffffffffffffffffffffffffffffff168273ffffffffffffffffffffffffffffffffffffffff1614156133d3576040517f08c379a00000000000000000000000000000000000000000000000000000000081526004016133ca90615aa4565b60405180910390fd5b6133dc816121fb565b1561341c576040517f08c379a000000000000000000000000000000000000000000000000000000000815260040161341390615b10565b60405180910390fd5b61342a60008383600161223c565b613433816121fb565b15613473576040517f08c379a000000000000000000000000000000000000000000000000000000000815260040161346a90615b10565b60405180910390fd5b6001600360008473ffffffffffffffffffffffffffffffffffffffff1673ffffffffffffffffffffffffffffffffffffffff16815260200190815260200160002060008282540192505081905550816002600083815260200190815260200160002060006101000a81548173ffffffffffffffffffffffffffffffffffffffff021916908373ffffffffffffffffffffffffffffffffffffffff160217905550808273ffffffffffffffffffffffffffffffffffffffff16600073ffffffffffffffffffffffffffffffffffffffff167fddf252ad1be2c89b69c2b068fc378daa952ba7f163c4a11628f55a4df523b3ef60405160405180910390a461357d60008383600161224e565b5050565b60007f01ffc9a7000000000000000000000000000000000000000000000000000000007bffffffffffffffffffffffffffffffffffffffffffffffffffffffff1916827bffffffffffffffffffffffffffffffffffffffffffffffffffffffff1916149050919050565b50505050565b6008805490506009600083815260200190815260200160002081905550600881908060018154018082558091505060019003906000526020600020016000909190919091505550565b6000600161364784610c8a565b61365191906150a8565b9050600060076000848152602001908152602001600020549050818114613736576000600660008673ffffffffffffffffffffffffffffffffffffffff1673ffffffffffffffffffffffffffffffffffffffff168152602001908152602001600020600084815260200190815260200160002054905080600660008773ffffffffffffffffffffffffffffffffffffffff1673ffffffffffffffffffffffffffffffffffffffff168152602001908152602001600020600084815260200190815260200160002081905550816007600083815260200190815260200160002081905550505b6007600084815260200190815260200160002060009055600660008573ffffffffffffffffffffffffffffffffffffffff1673ffffffffffffffffffffffffffffffffffffffff16815260200190815260200160002060008381526020019081526020016000206000905550505050565b600060016008805490506137bb91906150a8565b90506000600960008481526020019081526020016000205490506000600883815481106137eb576137ea614c33565b5b90600052602060002001549050806008838154811061380d5761380c614c33565b5b90600052602060002001819055508160096000838152602001908152602001600020819055506009600085815260200190815260200160002060009055600880548061385c5761385b615b30565b5b6001900381819060005260206000200160009055905550505050565b600061388383610c8a565b905081600660008573ffffffffffffffffffffffffffffffffffffffff1673ffffffffffffffffffffffffffffffffffffffff168152602001908152602001600020600083815260200190815260200160002081905550806007600084815260200190815260200160002081905550505050565b600073ffffffffffffffffffffffffffffffffffffffff168373ffffffffffffffffffffffffffffffffffffffff1614156139475761394461325282600e6132069092919063ffffffff16565b50505b600073ffffffffffffffffffffffffffffffffffffffff168273ffffffffffffffffffffffffffffffffffffffff161415613997576139946131f082600e6132069092919063ffffffff16565b50505b6139b26139a384610b80565b6139ac84610b80565b83612506565b505050565b50505050565b6000806139de846000016139d04361231f565b6139d986613b7e565b613be9565b817bffffffffffffffffffffffffffffffffffffffffffffffffffffffff169150807bffffffffffffffffffffffffffffffffffffffffffffffffffffffff169050915091509250929050565b600080600090507a184f03e93ff9f4daa797ed6e38ed64bf6a1f0100000000000000008310613a89577a184f03e93ff9f4daa797ed6e38ed64bf6a1f0100000000000000008381613a7f57613a7e6154d9565b5b0492506040810190505b6d04ee2d6d415b85acef81000000008310613ac6576d04ee2d6d415b85acef81000000008381613abc57613abb6154d9565b5b0492506020810190505b662386f26fc100008310613af557662386f26fc100008381613aeb57613aea6154d9565b5b0492506010810190505b6305f5e1008310613b1e576305f5e1008381613b1457613b136154d9565b5b0492506008810190505b6127108310613b43576127108381613b3957613b386154d9565b5b0492506004810190505b60648310613b665760648381613b5c57613b5b6154d9565b5b0492506002810190505b600a8310613b75576001810190505b80915050919050565b60007bffffffffffffffffffffffffffffffffffffffffffffffffffffffff8016821115613be1576040517f08c379a0000000000000000000000000000000000000000000000000000000008152600401613bd890615bd1565b60405180910390fd5b819050919050565b6000806000858054905090506000811115613e80576000613c1687600184613c1191906150a8565b61246c565b6040518060400160405290816000820160009054906101000a900463ffffffff1663ffffffff1663ffffffff1681526020016000820160049054906101000a90047bffffffffffffffffffffffffffffffffffffffffffffffffffffffff167bffffffffffffffffffffffffffffffffffffffffffffffffffffffff167bffffffffffffffffffffffffffffffffffffffffffffffffffffffff168152505090508563ffffffff16816000015163ffffffff161115613d0a576040517f08c379a0000000000000000000000000000000000000000000000000000000008152600401613d0190615c3d565b60405180910390fd5b8563ffffffff16816000015163ffffffff161415613d8f5784613d3988600185613d3491906150a8565b61246c565b60000160046101000a8154817bffffffffffffffffffffffffffffffffffffffffffffffffffffffff02191690837bffffffffffffffffffffffffffffffffffffffffffffffffffffffff160217905550613e6f565b8660405180604001604052808863ffffffff168152602001877bffffffffffffffffffffffffffffffffffffffffffffffffffffffff168152509080600181540180825580915050600190039060005260206000200160009091909190915060008201518160000160006101000a81548163ffffffff021916908363ffffffff16021790555060208201518160000160046101000a8154817bffffffffffffffffffffffffffffffffffffffffffffffffffffffff02191690837bffffffffffffffffffffffffffffffffffffffffffffffffffffffff16021790555050505b806020015185935093505050613f68565b8560405180604001604052808763ffffffff168152602001867bffffffffffffffffffffffffffffffffffffffffffffffffffffffff168152509080600181540180825580915050600190039060005260206000200160009091909190915060008201518160000160006101000a81548163ffffffff021916908363ffffffff16021790555060208201518160000160046101000a8154817bffffffffffffffffffffffffffffffffffffffffffffffffffffffff02191690837bffffffffffffffffffffffffffffffffffffffffffffffffffffffff160217905550505060008492509250505b935093915050565b828054613f7c90614895565b90600052602060002090601f016020900481019282613f9e5760008555613fe5565b82601f10613fb757805160ff1916838001178555613fe5565b82800160010185558215613fe5579182015b82811115613fe4578251825591602001919060010190613fc9565b5b509050613ff29190613ff6565b5090565b5b8082111561400f576000816000905550600101613ff7565b5090565b6000604051905090565b600080fd5b600080fd5b60007fffffffff0000000000000000000000000000000000000000000000000000000082169050919050565b61405c81614027565b811461406757600080fd5b50565b60008135905061407981614053565b92915050565b6000602082840312156140955761409461401d565b5b60006140a38482850161406a565b91505092915050565b60008115159050919050565b6140c1816140ac565b82525050565b60006020820190506140dc60008301846140b8565b92915050565b600081519050919050565b600082825260208201905092915050565b60005b8381101561411c578082015181840152602081019050614101565b8381111561412b576000848401525b50505050565b6000601f19601f8301169050919050565b600061414d826140e2565b61415781856140ed565b93506141678185602086016140fe565b61417081614131565b840191505092915050565b600060208201905081810360008301526141958184614142565b905092915050565b6000819050919050565b6141b08161419d565b81146141bb57600080fd5b50565b6000813590506141cd816141a7565b92915050565b6000602082840312156141e9576141e861401d565b5b60006141f7848285016141be565b91505092915050565b600073ffffffffffffffffffffffffffffffffffffffff82169050919050565b600061422b82614200565b9050919050565b61423b81614220565b82525050565b60006020820190506142566000830184614232565b92915050565b61426581614220565b811461427057600080fd5b50565b6000813590506142828161425c565b92915050565b6000806040838503121561429f5761429e61401d565b5b60006142ad85828601614273565b92505060206142be858286016141be565b9150509250929050565b6142d18161419d565b82525050565b60006020820190506142ec60008301846142c8565b92915050565b60008060006060848603121561430b5761430a61401d565b5b600061431986828701614273565b935050602061432a86828701614273565b925050604061433b868287016141be565b9150509250925092565b6000819050919050565b61435881614345565b811461436357600080fd5b50565b6000813590506143758161434f565b92915050565b6000602082840312156143915761439061401d565b5b600061439f84828501614366565b91505092915050565b6143b181614345565b82525050565b60006020820190506143cc60008301846143a8565b92915050565b600080604083850312156143e9576143e861401d565b5b60006143f785828601614366565b925050602061440885828601614273565b9150509250929050565b6000602082840312156144285761442761401d565b5b600061443684828501614273565b91505092915050565b614448816140ac565b811461445357600080fd5b50565b6000813590506144658161443f565b92915050565b600080604083850312156144825761448161401d565b5b600061449085828601614273565b92505060206144a185828601614456565b9150509250929050565b600080fd5b600080fd5b7f4e487b7100000000000000000000000000000000000000000000000000000000600052604160045260246000fd5b6144ed82614131565b810181811067ffffffffffffffff8211171561450c5761450b6144b5565b5b80604052505050565b600061451f614013565b905061452b82826144e4565b919050565b600067ffffffffffffffff82111561454b5761454a6144b5565b5b61455482614131565b9050602081019050919050565b82818337600083830152505050565b600061458361457e84614530565b614515565b90508281526020810184848401111561459f5761459e6144b0565b5b6145aa848285614561565b509392505050565b600082601f8301126145c7576145c66144ab565b5b81356145d7848260208601614570565b91505092915050565b600080600080608085870312156145fa576145f961401d565b5b600061460887828801614273565b945050602061461987828801614273565b935050604061462a878288016141be565b925050606085013567ffffffffffffffff81111561464b5761464a614022565b5b614657878288016145b2565b91505092959194509250565b600060ff82169050919050565b61467981614663565b811461468457600080fd5b50565b60008135905061469681614670565b92915050565b60008060008060008060c087890312156146b9576146b861401d565b5b60006146c789828a01614273565b96505060206146d889828a016141be565b95505060406146e989828a016141be565b94505060606146fa89828a01614687565b935050608061470b89828a01614366565b92505060a061471c89828a01614366565b9150509295509295509295565b600067ffffffffffffffff821115614744576147436144b5565b5b61474d82614131565b9050602081019050919050565b600061476d61476884614729565b614515565b905082815260208101848484011115614789576147886144b0565b5b614794848285614561565b509392505050565b600082601f8301126147b1576147b06144ab565b5b81356147c184826020860161475a565b91505092915050565b600080604083850312156147e1576147e061401d565b5b60006147ef85828601614273565b925050602083013567ffffffffffffffff8111156148105761480f614022565b5b61481c8582860161479c565b9150509250929050565b6000806040838503121561483d5761483c61401d565b5b600061484b85828601614273565b925050602061485c85828601614273565b9150509250929050565b7f4e487b7100000000000000000000000000000000000000000000000000000000600052602260045260246000fd5b600060028204905060018216806148ad57607f821691505b602082108114156148c1576148c0614866565b5b50919050565b7f4552433732313a20617070726f76616c20746f2063757272656e74206f776e6560008201527f7200000000000000000000000000000000000000000000000000000000000000602082015250565b60006149236021836140ed565b915061492e826148c7565b604082019050919050565b6000602082019050818103600083015261495281614916565b9050919050565b7f4552433732313a20617070726f76652063616c6c6572206973206e6f7420746f60008201527f6b656e206f776e6572206f7220617070726f76656420666f7220616c6c000000602082015250565b60006149b5603d836140ed565b91506149c082614959565b604082019050919050565b600060208201905081810360008301526149e4816149a8565b9050919050565b7f4552433732313a2063616c6c6572206973206e6f7420746f6b656e206f776e6560008201527f72206f7220617070726f76656400000000000000000000000000000000000000602082015250565b6000614a47602d836140ed565b9150614a52826149eb565b604082019050919050565b60006020820190508181036000830152614a7681614a3a565b9050919050565b7f455243373231456e756d657261626c653a206f776e657220696e646578206f7560008201527f74206f6620626f756e6473000000000000000000000000000000000000000000602082015250565b6000614ad9602b836140ed565b9150614ae482614a7d565b604082019050919050565b60006020820190508181036000830152614b0881614acc565b9050919050565b7f416363657373436f6e74726f6c3a2063616e206f6e6c792072656e6f756e636560008201527f20726f6c657320666f722073656c660000000000000000000000000000000000602082015250565b6000614b6b602f836140ed565b9150614b7682614b0f565b604082019050919050565b60006020820190508181036000830152614b9a81614b5e565b9050919050565b7f455243373231456e756d657261626c653a20676c6f62616c20696e646578206f60008201527f7574206f6620626f756e64730000000000000000000000000000000000000000602082015250565b6000614bfd602c836140ed565b9150614c0882614ba1565b604082019050919050565b60006020820190508181036000830152614c2c81614bf0565b9050919050565b7f4e487b7100000000000000000000000000000000000000000000000000000000600052603260045260246000fd5b7f4552433732313a20696e76616c696420746f6b656e2049440000000000000000600082015250565b6000614c986018836140ed565b9150614ca382614c62565b602082019050919050565b60006020820190508181036000830152614cc781614c8b565b9050919050565b7f4552433732313a2061646472657373207a65726f206973206e6f74206120766160008201527f6c6964206f776e65720000000000000000000000000000000000000000000000602082015250565b6000614d2a6029836140ed565b9150614d3582614cce565b604082019050919050565b60006020820190508181036000830152614d5981614d1d565b9050919050565b7f566f7465733a20626c6f636b206e6f7420796574206d696e6564000000000000600082015250565b6000614d96601a836140ed565b9150614da182614d60565b602082019050919050565b60006020820190508181036000830152614dc581614d89565b9050919050565b7f566f7465733a207369676e617475726520657870697265640000000000000000600082015250565b6000614e026018836140ed565b9150614e0d82614dcc565b602082019050919050565b60006020820190508181036000830152614e3181614df5565b9050919050565b6000608082019050614e4d60008301876143a8565b614e5a6020830186614232565b614e6760408301856142c8565b614e7460608301846142c8565b95945050505050565b7f566f7465733a20696e76616c6964206e6f6e6365000000000000000000000000600082015250565b6000614eb36014836140ed565b9150614ebe82614e7d565b602082019050919050565b60006020820190508181036000830152614ee281614ea6565b9050919050565b7f4552433732313a207472616e736665722066726f6d20696e636f72726563742060008201527f6f776e6572000000000000000000000000000000000000000000000000000000602082015250565b6000614f456025836140ed565b9150614f5082614ee9565b604082019050919050565b60006020820190508181036000830152614f7481614f38565b9050919050565b7f4552433732313a207472616e7366657220746f20746865207a65726f2061646460008201527f7265737300000000000000000000000000000000000000000000000000000000602082015250565b6000614fd76024836140ed565b9150614fe282614f7b565b604082019050919050565b6000602082019050818103600083015261500681614fca565b9050919050565b7f436865636b706f696e74733a20626c6f636b206e6f7420796574206d696e6564600082015250565b60006150436020836140ed565b915061504e8261500d565b602082019050919050565b6000602082019050818103600083015261507281615036565b9050919050565b7f4e487b7100000000000000000000000000000000000000000000000000000000600052601160045260246000fd5b60006150b38261419d565b91506150be8361419d565b9250828210156150d1576150d0615079565b5b828203905092915050565b60006150e78261419d565b91506150f28361419d565b9250827fffffffffffffffffffffffffffffffffffffffffffffffffffffffffffffffff0382111561512757615126615079565b5b828201905092915050565b7f4552433732313a20617070726f766520746f2063616c6c657200000000000000600082015250565b60006151686019836140ed565b915061517382615132565b602082019050919050565b600060208201905081810360008301526151978161515b565b9050919050565b7f4552433732313a207472616e7366657220746f206e6f6e20455243373231526560008201527f63656976657220696d706c656d656e7465720000000000000000000000000000602082015250565b60006151fa6032836140ed565b91506152058261519e565b604082019050919050565b60006020820190508181036000830152615229816151ed565b9050919050565b600081905092915050565b6000615246826140e2565b6152508185615230565b93506152608185602086016140fe565b80840191505092915050565b6000615278828561523b565b9150615284828461523b565b91508190509392505050565b7f45524337323155524953746f726167653a2055524920736574206f66206e6f6e60008201527f6578697374656e7420746f6b656e000000000000000000000000000000000000602082015250565b60006152ec602e836140ed565b91506152f782615290565b604082019050919050565b6000602082019050818103600083015261531b816152df565b9050919050565b7f416363657373436f6e74726f6c3a206163636f756e7420000000000000000000600082015250565b6000615358601783615230565b915061536382615322565b601782019050919050565b7f206973206d697373696e6720726f6c6520000000000000000000000000000000600082015250565b60006153a4601183615230565b91506153af8261536e565b601182019050919050565b60006153c58261534b565b91506153d1828561523b565b91506153dc82615397565b91506153e8828461523b565b91508190509392505050565b600060a08201905061540960008301886143a8565b61541660208301876143a8565b61542360408301866143a8565b61543060608301856142c8565b61543d6080830184614232565b9695505050505050565b7f53616665436173743a2076616c756520646f65736e27742066697420696e203360008201527f3220626974730000000000000000000000000000000000000000000000000000602082015250565b60006154a36026836140ed565b91506154ae82615447565b604082019050919050565b600060208201905081810360008301526154d281615496565b9050919050565b7f4e487b7100000000000000000000000000000000000000000000000000000000600052601260045260246000fd5b600060408201905061551d60008301856142c8565b61552a60208301846142c8565b9392505050565b600081519050919050565b600082825260208201905092915050565b600061555882615531565b615562818561553c565b93506155728185602086016140fe565b61557b81614131565b840191505092915050565b600060808201905061559b6000830187614232565b6155a86020830186614232565b6155b560408301856142c8565b81810360608301526155c7818461554d565b905095945050505050565b6000815190506155e181614053565b92915050565b6000602082840312156155fd576155fc61401d565b5b600061560b848285016155d2565b91505092915050565b7f1901000000000000000000000000000000000000000000000000000000000000600082015250565b600061564a600283615230565b915061565582615614565b600282019050919050565b6000819050919050565b61567b61567682614345565b615660565b82525050565b600061568c8261563d565b9150615698828561566a565b6020820191506156a8828461566a565b6020820191508190509392505050565b6156c181614663565b82525050565b60006080820190506156dc60008301876143a8565b6156e960208301866156b8565b6156f660408301856143a8565b61570360608301846143a8565b95945050505050565b7f4e487b7100000000000000000000000000000000000000000000000000000000600052602160045260246000fd5b7f45434453413a20696e76616c6964207369676e61747572650000000000000000600082015250565b60006157716018836140ed565b915061577c8261573b565b602082019050919050565b600060208201905081810360008301526157a081615764565b9050919050565b7f45434453413a20696e76616c6964207369676e6174757265206c656e67746800600082015250565b60006157dd601f836140ed565b91506157e8826157a7565b602082019050919050565b6000602082019050818103600083015261580c816157d0565b9050919050565b7f45434453413a20696e76616c6964207369676e6174757265202773272076616c60008201527f7565000000000000000000000000000000000000000000000000000000000000602082015250565b600061586f6022836140ed565b915061587a82615813565b604082019050919050565b6000602082019050818103600083015261589e81615862565b9050919050565b7f455243373231456e756d657261626c653a20636f6e736563757469766520747260008201527f616e7366657273206e6f7420737570706f727465640000000000000000000000602082015250565b60006159016035836140ed565b915061590c826158a5565b604082019050919050565b60006020820190508181036000830152615930816158f4565b9050919050565b60006159428261419d565b915061594d8361419d565b9250817fffffffffffffffffffffffffffffffffffffffffffffffffffffffffffffffff048311821515161561598657615985615079565b5b828202905092915050565b600061599c8261419d565b915060008214156159b0576159af615079565b5b600182039050919050565b7f537472696e67733a20686578206c656e67746820696e73756666696369656e74600082015250565b60006159f16020836140ed565b91506159fc826159bb565b602082019050919050565b60006020820190508181036000830152615a20816159e4565b9050919050565b6000615a328261419d565b9150615a3d8361419d565b925082615a4d57615a4c6154d9565b5b828204905092915050565b7f4552433732313a206d696e7420746f20746865207a65726f2061646472657373600082015250565b6000615a8e6020836140ed565b9150615a9982615a58565b602082019050919050565b60006020820190508181036000830152615abd81615a81565b9050919050565b7f4552433732313a20746f6b656e20616c7265616479206d696e74656400000000600082015250565b6000615afa601c836140ed565b9150615b0582615ac4565b602082019050919050565b60006020820190508181036000830152615b2981615aed565b9050919050565b7f4e487b7100000000000000000000000000000000000000000000000000000000600052603160045260246000fd5b7f53616665436173743a2076616c756520646f65736e27742066697420696e203260008201527f3234206269747300000000000000000000000000000000000000000000000000602082015250565b6000615bbb6027836140ed565b9150615bc682615b5f565b604082019050919050565b60006020820190508181036000830152615bea81615bae565b9050919050565b7f436865636b706f696e743a20696e76616c6964206b6579000000000000000000600082015250565b6000615c276017836140ed565b9150615c3282615bf1565b602082019050919050565b60006020820190508181036000830152615c5681615c1a565b905091905056fea264697066735822122077d18677574a596482e2b4ba93fe92f35be498f8d55f104b0226cae9427bbbe364736f6c63430008090033",
  "linkReferences": {},
  "deployedLinkReferences": {}
}