{
    "contractName": "Pandemonium",
    "abi": [
        {
            "inputs": [],
            "stateMutability": "nonpayable",
            "type": "constructor"
        },
        {
            "anonymous": false,
            "inputs": [
                {
                    "indexed": true,
                    "internalType": "address",
                    "name": "owner",
                    "type": "address"
                },
                {
                    "indexed": true,
                    "internalType": "address",
                    "name": "approved",
                    "type": "address"
                },
                {
                    "indexed": true,
                    "internalType": "uint256",
                    "name": "tokenId",
                    "type": "uint256"
                }
            ],
            "name": "Approval",
            "type": "event"
        },
        {
            "anonymous": false,
            "inputs": [
                {
                    "indexed": true,
                    "internalType": "address",
                    "name": "owner",
                    "type": "address"
                },
                {
                    "indexed": true,
                    "internalType": "address",
                    "name": "operator",
                    "type": "address"
                },
                {
                    "indexed": false,
                    "internalType": "bool",
                    "name": "approved",
                    "type": "bool"
                }
            ],
            "name": "ApprovalForAll",
            "type": "event"
        },
        {
            "anonymous": false,
            "inputs": [
                {
                    "indexed": true,
                    "internalType": "address",
                    "name": "delegator",
                    "type": "address"
                },
                {
                    "indexed": true,
                    "internalType": "address",
                    "name": "fromDelegate",
                    "type": "address"
                },
                {
                    "indexed": true,
                    "internalType": "address",
                    "name": "toDelegate",
                    "type": "address"
                }
            ],
            "name": "DelegateChanged",
            "type": "event"
        },
        {
            "anonymous": false,
            "inputs": [
                {
                    "indexed": true,
                    "internalType": "address",
                    "name": "delegate",
                    "type": "address"
                },
                {
                    "indexed": false,
                    "internalType": "uint256",
                    "name": "previousBalance",
                    "type": "uint256"
                },
                {
                    "indexed": false,
                    "internalType": "uint256",
                    "name": "newBalance",
                    "type": "uint256"
                }
            ],
            "name": "DelegateVotesChanged",
            "type": "event"
        },
        {
            "anonymous": false,
            "inputs": [
                {
                    "indexed": true,
                    "internalType": "bytes32",
                    "name": "role",
                    "type": "bytes32"
                },
                {
                    "indexed": true,
                    "internalType": "bytes32",
                    "name": "previousAdminRole",
                    "type": "bytes32"
                },
                {
                    "indexed": true,
                    "internalType": "bytes32",
                    "name": "newAdminRole",
                    "type": "bytes32"
                }
            ],
            "name": "RoleAdminChanged",
            "type": "event"
        },
        {
            "anonymous": false,
            "inputs": [
                {
                    "indexed": true,
                    "internalType": "bytes32",
                    "name": "role",
                    "type": "bytes32"
                },
                {
                    "indexed": true,
                    "internalType": "address",
                    "name": "account",
                    "type": "address"
                },
                {
                    "indexed": true,
                    "internalType": "address",
                    "name": "sender",
                    "type": "address"
                }
            ],
            "name": "RoleGranted",
            "type": "event"
        },
        {
            "anonymous": false,
            "inputs": [
                {
                    "indexed": true,
                    "internalType": "bytes32",
                    "name": "role",
                    "type": "bytes32"
                },
                {
                    "indexed": true,
                    "internalType": "address",
                    "name": "account",
                    "type": "address"
                },
                {
                    "indexed": true,
                    "internalType": "address",
                    "name": "sender",
                    "type": "address"
                }
            ],
            "name": "RoleRevoked",
            "type": "event"
        },
        {
            "anonymous": false,
            "inputs": [
                {
                    "indexed": true,
                    "internalType": "address",
                    "name": "from",
                    "type": "address"
                },
                {
                    "indexed": true,
                    "internalType": "address",
                    "name": "to",
                    "type": "address"
                },
                {
                    "indexed": true,
                    "internalType": "uint256",
                    "name": "tokenId",
                    "type": "uint256"
                }
            ],
            "name": "Transfer",
            "type": "event"
        },
        {
            "inputs": [],
            "name": "DEFAULT_ADMIN_ROLE",
            "outputs": [
                {
                    "internalType": "bytes32",
                    "name": "",
                    "type": "bytes32"
                }
            ],
            "stateMutability": "view",
            "type": "function"
        },
        {
            "inputs": [],
            "name": "DOMAIN_SEPARATOR",
            "outputs": [
                {
                    "internalType": "bytes32",
                    "name": "",
                    "type": "bytes32"
                }
            ],
            "stateMutability": "view",
            "type": "function"
        },
        {
            "inputs": [],
            "name": "MINTER_ROLE",
            "outputs": [
                {
                    "internalType": "bytes32",
                    "name": "",
                    "type": "bytes32"
                }
            ],
            "stateMutability": "view",
            "type": "function"
        },
        {
            "inputs": [
                {
                    "internalType": "address",
                    "name": "to",
                    "type": "address"
                },
                {
                    "internalType": "uint256",
                    "name": "tokenId",
                    "type": "uint256"
                }
            ],
            "name": "approve",
            "outputs": [],
            "stateMutability": "nonpayable",
            "type": "function"
        },
        {
            "inputs": [
                {
                    "internalType": "address",
                    "name": "owner",
                    "type": "address"
                }
            ],
            "name": "balanceOf",
            "outputs": [
                {
                    "internalType": "uint256",
                    "name": "",
                    "type": "uint256"
                }
            ],
            "stateMutability": "view",
            "type": "function"
        },
        {
            "inputs": [
                {
                    "internalType": "address",
                    "name": "delegatee",
                    "type": "address"
                }
            ],
            "name": "delegate",
            "outputs": [],
            "stateMutability": "nonpayable",
            "type": "function"
        },
        {
            "inputs": [
                {
                    "internalType": "address",
                    "name": "delegatee",
                    "type": "address"
                },
                {
                    "internalType": "uint256",
                    "name": "nonce",
                    "type": "uint256"
                },
                {
                    "internalType": "uint256",
                    "name": "expiry",
                    "type": "uint256"
                },
                {
                    "internalType": "uint8",
                    "name": "v",
                    "type": "uint8"
                },
                {
                    "internalType": "bytes32",
                    "name": "r",
                    "type": "bytes32"
                },
                {
                    "internalType": "bytes32",
                    "name": "s",
                    "type": "bytes32"
                }
            ],
            "name": "delegateBySig",
            "outputs": [],
            "stateMutability": "nonpayable",
            "type": "function"
        },
        {
            "inputs": [
                {
                    "internalType": "address",
                    "name": "account",
                    "type": "address"
                }
            ],
            "name": "delegates",
            "outputs": [
                {
                    "internalType": "address",
                    "name": "",
                    "type": "address"
                }
            ],
            "stateMutability": "view",
            "type": "function"
        },
        {
            "inputs": [
                {
                    "internalType": "uint256",
                    "name": "tokenId",
                    "type": "uint256"
                }
            ],
            "name": "getApproved",
            "outputs": [
                {
                    "internalType": "address",
                    "name": "",
                    "type": "address"
                }
            ],
            "stateMutability": "view",
            "type": "function"
        },
        {
            "inputs": [
                {
                    "internalType": "uint256",
                    "name": "blockNumber",
                    "type": "uint256"
                }
            ],
            "name": "getPastTotalSupply",
            "outputs": [
                {
                    "internalType": "uint256",
                    "name": "",
                    "type": "uint256"
                }
            ],
            "stateMutability": "view",
            "type": "function"
        },
        {
            "inputs": [
                {
                    "internalType": "address",
                    "name": "account",
                    "type": "address"
                },
                {
                    "internalType": "uint256",
                    "name": "blockNumber",
                    "type": "uint256"
                }
            ],
            "name": "getPastVotes",
            "outputs": [
                {
                    "internalType": "uint256",
                    "name": "",
                    "type": "uint256"
                }
            ],
            "stateMutability": "view",
            "type": "function"
        },
        {
            "inputs": [
                {
                    "internalType": "bytes32",
                    "name": "role",
                    "type": "bytes32"
                }
            ],
            "name": "getRoleAdmin",
            "outputs": [
                {
                    "internalType": "bytes32",
                    "name": "",
                    "type": "bytes32"
                }
            ],
            "stateMutability": "view",
            "type": "function"
        },
        {
            "inputs": [
                {
                    "internalType": "address",
                    "name": "account",
                    "type": "address"
                }
            ],
            "name": "getVotes",
            "outputs": [
                {
                    "internalType": "uint256",
                    "name": "",
                    "type": "uint256"
                }
            ],
            "stateMutability": "view",
            "type": "function"
        },
        {
            "inputs": [
                {
                    "internalType": "bytes32",
                    "name": "role",
                    "type": "bytes32"
                },
                {
                    "internalType": "address",
                    "name": "account",
                    "type": "address"
                }
            ],
            "name": "grantRole",
            "outputs": [],
            "stateMutability": "nonpayable",
            "type": "function"
        },
        {
            "inputs": [
                {
                    "internalType": "bytes32",
                    "name": "role",
                    "type": "bytes32"
                },
                {
                    "internalType": "address",
                    "name": "account",
                    "type": "address"
                }
            ],
            "name": "hasRole",
            "outputs": [
                {
                    "internalType": "bool",
                    "name": "",
                    "type": "bool"
                }
            ],
            "stateMutability": "view",
            "type": "function"
        },
        {
            "inputs": [
                {
                    "internalType": "address",
                    "name": "owner",
                    "type": "address"
                },
                {
                    "internalType": "address",
                    "name": "operator",
                    "type": "address"
                }
            ],
            "name": "isApprovedForAll",
            "outputs": [
                {
                    "internalType": "bool",
                    "name": "",
                    "type": "bool"
                }
            ],
            "stateMutability": "view",
            "type": "function"
        },
        {
            "inputs": [],
            "name": "name",
            "outputs": [
                {
                    "internalType": "string",
                    "name": "",
                    "type": "string"
                }
            ],
            "stateMutability": "view",
            "type": "function"
        },
        {
            "inputs": [
                {
                    "internalType": "address",
                    "name": "owner",
                    "type": "address"
                }
            ],
            "name": "nonces",
            "outputs": [
                {
                    "internalType": "uint256",
                    "name": "",
                    "type": "uint256"
                }
            ],
            "stateMutability": "view",
            "type": "function"
        },
        {
            "inputs": [
                {
                    "internalType": "uint256",
                    "name": "tokenId",
                    "type": "uint256"
                }
            ],
            "name": "ownerOf",
            "outputs": [
                {
                    "internalType": "address",
                    "name": "",
                    "type": "address"
                }
            ],
            "stateMutability": "view",
            "type": "function"
        },
        {
            "inputs": [
                {
                    "internalType": "bytes32",
                    "name": "role",
                    "type": "bytes32"
                },
                {
                    "internalType": "address",
                    "name": "account",
                    "type": "address"
                }
            ],
            "name": "renounceRole",
            "outputs": [],
            "stateMutability": "nonpayable",
            "type": "function"
        },
        {
            "inputs": [
                {
                    "internalType": "bytes32",
                    "name": "role",
                    "type": "bytes32"
                },
                {
                    "internalType": "address",
                    "name": "account",
                    "type": "address"
                }
            ],
            "name": "revokeRole",
            "outputs": [],
            "stateMutability": "nonpayable",
            "type": "function"
        },
        {
            "inputs": [
                {
                    "internalType": "address",
                    "name": "to",
                    "type": "address"
                },
                {
                    "internalType": "string",
                    "name": "uri",
                    "type": "string"
                }
            ],
            "name": "safeMint",
            "outputs": [],
            "stateMutability": "nonpayable",
            "type": "function"
        },
        {
            "inputs": [
                {
                    "internalType": "address",
                    "name": "from",
                    "type": "address"
                },
                {
                    "internalType": "address",
                    "name": "to",
                    "type": "address"
                },
                {
                    "internalType": "uint256",
                    "name": "tokenId",
                    "type": "uint256"
                }
            ],
            "name": "safeTransferFrom",
            "outputs": [],
            "stateMutability": "nonpayable",
            "type": "function"
        },
        {
            "inputs": [
                {
                    "internalType": "address",
                    "name": "from",
                    "type": "address"
                },
                {
                    "internalType": "address",
                    "name": "to",
                    "type": "address"
                },
                {
                    "internalType": "uint256",
                    "name": "tokenId",
                    "type": "uint256"
                },
                {
                    "internalType": "bytes",
                    "name": "data",
                    "type": "bytes"
                }
            ],
            "name": "safeTransferFrom",
            "outputs": [],
            "stateMutability": "nonpayable",
            "type": "function"
        },
        {
            "inputs": [
                {
                    "internalType": "address",
                    "name": "operator",
                    "type": "address"
                },
                {
                    "internalType": "bool",
                    "name": "approved",
                    "type": "bool"
                }
            ],
            "name": "setApprovalForAll",
            "outputs": [],
            "stateMutability": "nonpayable",
            "type": "function"
        },
        {
            "inputs": [
                {
                    "internalType": "bytes4",
                    "name": "interfaceId",
                    "type": "bytes4"
                }
            ],
            "name": "supportsInterface",
            "outputs": [
                {
                    "internalType": "bool",
                    "name": "",
                    "type": "bool"
                }
            ],
            "stateMutability": "view",
            "type": "function"
        },
        {
            "inputs": [],
            "name": "symbol",
            "outputs": [
                {
                    "internalType": "string",
                    "name": "",
                    "type": "string"
                }
            ],
            "stateMutability": "view",
            "type": "function"
        },
        {
            "inputs": [
                {
                    "internalType": "uint256",
                    "name": "index",
                    "type": "uint256"
                }
            ],
            "name": "tokenByIndex",
            "outputs": [
                {
                    "internalType": "uint256",
                    "name": "",
                    "type": "uint256"
                }
            ],
            "stateMutability": "view",
            "type": "function"
        },
        {
            "inputs": [
                {
                    "internalType": "address",
                    "name": "owner",
                    "type": "address"
                },
                {
                    "internalType": "uint256",
                    "name": "index",
                    "type": "uint256"
                }
            ],
            "name": "tokenOfOwnerByIndex",
            "outputs": [
                {
                    "internalType": "uint256",
                    "name": "",
                    "type": "uint256"
                }
            ],
            "stateMutability": "view",
            "type": "function"
        },
        {
            "inputs": [
                {
                    "internalType": "uint256",
                    "name": "tokenId",
                    "type": "uint256"
                }
            ],
            "name": "tokenURI",
            "outputs": [
                {
                    "internalType": "string",
                    "name": "",
                    "type": "string"
                }
            ],
            "stateMutability": "view",
            "type": "function"
        },
        {
            "inputs": [],
            "name": "totalSupply",
            "outputs": [
                {
                    "internalType": "uint256",
                    "name": "",
                    "type": "uint256"
                }
            ],
            "stateMutability": "view",
            "type": "function"
        },
        {
            "inputs": [
                {
                    "internalType": "address",
                    "name": "from",
                    "type": "address"
                },
                {
                    "internalType": "address",
                    "name": "to",
                    "type": "address"
                },
                {
                    "internalType": "uint256",
                    "name": "tokenId",
                    "type": "uint256"
                }
            ],
            "name": "transferFrom",
            "outputs": [],
            "stateMutability": "nonpayable",
            "type": "function"
        }
    ],
    "bytecode": "6101406040523480156200001257600080fd5b50604051806040016040528060058152602001644c6f74746f60d81b815250604051806040016040528060018152602001603160f81b8152506040518060400160405280601181526020017014185b99195b5bdb9a5d5b4814dc5d5859607a1b815250604051806040016040528060058152602001644d4143415760d81b8152508160009081620000a49190620002ce565b506001620000b38282620002ce565b5050825160209384012082519284019290922060e08390526101008190524660a0818152604080517f8b73c3c69bb8fe3d512ecc4cf759cc79239f7b179b0ffacaa9a75d522b39400f818901819052818301979097526060810194909452608080850193909352308483018190528151808603909301835260c09485019091528151919096012090529290925261012052506200015260003362000184565b6200017e7f9f2df0fed2c77648de5860a4cc508cd0818c85b8b8a1ab4ceeef8d981c8956a63362000184565b6200039a565b6000828152600b602090815260408083206001600160a01b038516845290915290205460ff1662000225576000828152600b602090815260408083206001600160a01b03851684529091529020805460ff19166001179055620001e43390565b6001600160a01b0316816001600160a01b0316837f2f8788117e7eff1d82e926ec794901d17c78024a50270940304540a733656f0d60405160405180910390a45b5050565b634e487b7160e01b600052604160045260246000fd5b600181811c908216806200025457607f821691505b6020821081036200027557634e487b7160e01b600052602260045260246000fd5b50919050565b601f821115620002c957600081815260208120601f850160051c81016020861015620002a45750805b601f850160051c820191505b81811015620002c557828155600101620002b0565b5050505b505050565b81516001600160401b03811115620002ea57620002ea62000229565b6200030281620002fb84546200023f565b846200027b565b602080601f8311600181146200033a5760008415620003215750858301515b600019600386901b1c1916600185901b178555620002c5565b600085815260208120601f198616915b828110156200036b578886015182559484019460019091019084016200034a565b50858210156200038a5787850151600019600388901b60f8161c191681555b5050505050600190811b01905550565b60805160a05160c05160e05161010051610120516131bd620003ea60003960006110d301526000611122015260006110fd0152600061105601526000611080015260006110aa01526131bd6000f3fe608060405234801561001057600080fd5b50600436106101f05760003560e01c80636352211e1161010f578063a22cb465116100a2578063d204c45e11610071578063d204c45e14610441578063d539139314610454578063d547741f1461047b578063e985e9c51461048e57600080fd5b8063a22cb465146103f5578063b88d4fde14610408578063c3cda5201461041b578063c87b56dd1461042e57600080fd5b806391d14854116100de57806391d14854146103bf57806395d89b41146103d25780639ab24eb0146103da578063a217fddf146103ed57600080fd5b80636352211e1461037357806370a08231146103865780637ecebe00146103995780638e539e8c146103ac57600080fd5b80632f745c591161018757806342842e0e1161015657806342842e0e1461030e5780634f6ccce714610321578063587cde1e146103345780635c19a95c1461036057600080fd5b80632f745c59146102cd5780633644e515146102e057806336568abe146102e85780633a46b1a8146102fb57600080fd5b806318160ddd116101c357806318160ddd1461027257806323b872dd14610284578063248a9ca3146102975780632f2ff15d146102ba57600080fd5b806301ffc9a7146101f557806306fdde031461021d578063081812fc14610232578063095ea7b31461025d575b600080fd5b6102086102033660046129ed565b6104ca565b60405190151581526020015b60405180910390f35b6102256104db565b6040516102149190612a5a565b610245610240366004612a6d565b61056d565b6040516001600160a01b039091168152602001610214565b61027061026b366004612aa2565b610594565b005b6008545b604051908152602001610214565b610270610292366004612acc565b6106ae565b6102766102a5366004612a6d565b6000908152600b602052604090206001015490565b6102706102c8366004612b08565b6106df565b6102766102db366004612aa2565b610704565b61027661079a565b6102706102f6366004612b08565b6107a9565b610276610309366004612aa2565b610827565b61027061031c366004612acc565b610850565b61027661032f366004612a6d565b61086b565b610245610342366004612b34565b6001600160a01b039081166000908152600c60205260409020541690565b61027061036e366004612b34565b6108fe565b610245610381366004612a6d565b610909565b610276610394366004612b34565b610969565b6102766103a7366004612b34565b6109ef565b6102766103ba366004612a6d565b610a0d565b6102086103cd366004612b08565b610a69565b610225610a94565b6102766103e8366004612b34565b610aa3565b610276600081565b610270610403366004612b4f565b610ad3565b610270610416366004612c17565b610ade565b610270610429366004612c93565b610b16565b61022561043c366004612a6d565b610c43565b61027061044f366004612cf3565b610c4e565b6102767f9f2df0fed2c77648de5860a4cc508cd0818c85b8b8a1ab4ceeef8d981c8956a681565b610270610489366004612b08565b610ca7565b61020861049c366004612d55565b6001600160a01b03918216600090815260056020908152604080832093909416825291909152205460ff1690565b60006104d582610ccc565b92915050565b6060600080546104ea90612d7f565b80601f016020809104026020016040519081016040528092919081815260200182805461051690612d7f565b80156105635780601f1061053857610100808354040283529160200191610563565b820191906000526020600020905b81548152906001019060200180831161054657829003601f168201915b5050505050905090565b600061057882610cf1565b506000908152600460205260409020546001600160a01b031690565b600061059f82610909565b9050806001600160a01b0316836001600160a01b0316036106115760405162461bcd60e51b815260206004820152602160248201527f4552433732313a20617070726f76616c20746f2063757272656e74206f776e656044820152603960f91b60648201526084015b60405180910390fd5b336001600160a01b038216148061062d575061062d813361049c565b61069f5760405162461bcd60e51b815260206004820152603d60248201527f4552433732313a20617070726f76652063616c6c6572206973206e6f7420746f60448201527f6b656e206f776e6572206f7220617070726f76656420666f7220616c6c0000006064820152608401610608565b6106a98383610d53565b505050565b6106b83382610dc1565b6106d45760405162461bcd60e51b815260040161060890612db3565b6106a9838383610e40565b6000828152600b60205260409020600101546106fa81610fb9565b6106a98383610fc3565b600061070f83610969565b82106107715760405162461bcd60e51b815260206004820152602b60248201527f455243373231456e756d657261626c653a206f776e657220696e646578206f7560448201526a74206f6620626f756e647360a81b6064820152608401610608565b506001600160a01b03919091166000908152600660209081526040808320938352929052205490565b60006107a4611049565b905090565b6001600160a01b03811633146108195760405162461bcd60e51b815260206004820152602f60248201527f416363657373436f6e74726f6c3a2063616e206f6e6c792072656e6f756e636560448201526e103937b632b9903337b91039b2b63360891b6064820152608401610608565b6108238282611170565b5050565b6001600160a01b0382166000908152600d6020526040812061084990836111d7565b9392505050565b6106a983838360405180602001604052806000815250610ade565b600061087660085490565b82106108d95760405162461bcd60e51b815260206004820152602c60248201527f455243373231456e756d657261626c653a20676c6f62616c20696e646578206f60448201526b7574206f6620626f756e647360a01b6064820152608401610608565b600882815481106108ec576108ec612e00565b90600052602060002001549050919050565b3361082381836112f3565b6000818152600260205260408120546001600160a01b0316806104d55760405162461bcd60e51b8152602060048201526018602482015277115490cdcc8c4e881a5b9d985b1a59081d1bdad95b88125160421b6044820152606401610608565b60006001600160a01b0382166109d35760405162461bcd60e51b815260206004820152602960248201527f4552433732313a2061646472657373207a65726f206973206e6f7420612076616044820152683634b21037bbb732b960b91b6064820152608401610608565b506001600160a01b031660009081526003602052604090205490565b6001600160a01b0381166000908152600f60205260408120546104d5565b6000438210610a5e5760405162461bcd60e51b815260206004820152601a60248201527f566f7465733a20626c6f636b206e6f7420796574206d696e65640000000000006044820152606401610608565b6104d5600e836111d7565b6000918252600b602090815260408084206001600160a01b0393909316845291905290205460ff1690565b6060600180546104ea90612d7f565b6001600160a01b0381166000908152600d60205260408120610ac490611365565b6001600160e01b031692915050565b61082333838361139f565b610ae83383610dc1565b610b045760405162461bcd60e51b815260040161060890612db3565b610b108484848461146d565b50505050565b83421115610b665760405162461bcd60e51b815260206004820152601860248201527f566f7465733a207369676e6174757265206578706972656400000000000000006044820152606401610608565b604080517fe48329057bfd03d55e49b547132e39cffd9c1820ad7b9d4c5307691425d15adf60208201526001600160a01b038816918101919091526060810186905260808101859052600090610be090610bd89060a001604051602081830303815290604052805190602001206114a0565b8585856114ee565b9050610beb81611516565b8614610c305760405162461bcd60e51b8152602060048201526014602482015273566f7465733a20696e76616c6964206e6f6e636560601b6044820152606401610608565b610c3a81886112f3565b50505050505050565b60606104d58261153e565b7f9f2df0fed2c77648de5860a4cc508cd0818c85b8b8a1ab4ceeef8d981c8956a6610c7881610fb9565b6000610c8360105490565b9050610c93601080546001019055565b610c9d8482611646565b610b108184611660565b6000828152600b6020526040902060010154610cc281610fb9565b6106a98383611170565b60006001600160e01b03198216637965db0b60e01b14806104d557506104d5826116f3565b6000818152600260205260409020546001600160a01b0316610d505760405162461bcd60e51b8152602060048201526018602482015277115490cdcc8c4e881a5b9d985b1a59081d1bdad95b88125160421b6044820152606401610608565b50565b600081815260046020526040902080546001600160a01b0319166001600160a01b0384169081179091558190610d8882610909565b6001600160a01b03167f8c5be1e5ebec7d5bd14f71427d1e84f3dd0314c0f7b2291e5b200ac8c7c3b92560405160405180910390a45050565b600080610dcd83610909565b9050806001600160a01b0316846001600160a01b03161480610e1457506001600160a01b0380821660009081526005602090815260408083209388168352929052205460ff165b80610e385750836001600160a01b0316610e2d8461056d565b6001600160a01b0316145b949350505050565b826001600160a01b0316610e5382610909565b6001600160a01b031614610e795760405162461bcd60e51b815260040161060890612e16565b6001600160a01b038216610edb5760405162461bcd60e51b8152602060048201526024808201527f4552433732313a207472616e7366657220746f20746865207a65726f206164646044820152637265737360e01b6064820152608401610608565b610ee88383836001611718565b826001600160a01b0316610efb82610909565b6001600160a01b031614610f215760405162461bcd60e51b815260040161060890612e16565b600081815260046020908152604080832080546001600160a01b03199081169091556001600160a01b0387811680865260038552838620805460001901905590871680865283862080546001019055868652600290945282852080549092168417909155905184937fddf252ad1be2c89b69c2b068fc378daa952ba7f163c4a11628f55a4df523b3ef91a46106a98383836001611724565b610d508133611730565b610fcd8282610a69565b610823576000828152600b602090815260408083206001600160a01b03851684529091529020805460ff191660011790556110053390565b6001600160a01b0316816001600160a01b0316837f2f8788117e7eff1d82e926ec794901d17c78024a50270940304540a733656f0d60405160405180910390a45050565b6000306001600160a01b037f0000000000000000000000000000000000000000000000000000000000000000161480156110a257507f000000000000000000000000000000000000000000000000000000000000000046145b156110cc57507f000000000000000000000000000000000000000000000000000000000000000090565b50604080517f00000000000000000000000000000000000000000000000000000000000000006020808301919091527f0000000000000000000000000000000000000000000000000000000000000000828401527f000000000000000000000000000000000000000000000000000000000000000060608301524660808301523060a0808401919091528351808403909101815260c0909201909252805191012090565b61117a8282610a69565b15610823576000828152600b602090815260408083206001600160a01b0385168085529252808320805460ff1916905551339285917ff6391f5c32d9c69d2a47ea670b442974b53935d1edc7fd64eb21e047a839171b9190a45050565b60004382106112285760405162461bcd60e51b815260206004820181905260248201527f436865636b706f696e74733a20626c6f636b206e6f7420796574206d696e65646044820152606401610608565b600061123383611789565b8454909150600081600581111561129157600061124f846117f2565b6112599085612e71565b60008981526020902090915081015463ffffffff90811690861610156112815780915061128f565b61128c816001612e84565b92505b505b600061129f888685856118da565b905080156112db576112c4886112b6600184612e71565b600091825260209091200190565b5464010000000090046001600160e01b03166112de565b60005b6001600160e01b031698975050505050505050565b6001600160a01b038281166000818152600c602052604080822080548686166001600160a01b0319821681179092559151919094169392849290917f3134e8a2e6d97e929a7e54011ea5485d7d196dd5f0ba4d4ef95803e8e3fc257f9190a46106a9818361136086611938565b611943565b805460009080156113965761137f836112b6600184612e71565b5464010000000090046001600160e01b0316610849565b60009392505050565b816001600160a01b0316836001600160a01b0316036114005760405162461bcd60e51b815260206004820152601960248201527f4552433732313a20617070726f766520746f2063616c6c6572000000000000006044820152606401610608565b6001600160a01b03838116600081815260056020908152604080832094871680845294825291829020805460ff191686151590811790915591519182527f17307eab39ab6107e8899845ad3d59bd9653f200f220920489ca2b5937696c31910160405180910390a3505050565b611478848484610e40565b61148484848484611a80565b610b105760405162461bcd60e51b815260040161060890612e97565b60006104d56114ad611049565b8360405161190160f01b6020820152602281018390526042810182905260009060620160405160208183030381529060405280519060200120905092915050565b60008060006114ff87878787611b7e565b9150915061150c81611c42565b5095945050505050565b6001600160a01b0381166000908152600f602052604090208054600181018255905b50919050565b606061154982610cf1565b6000828152600a60205260408120805461156290612d7f565b80601f016020809104026020016040519081016040528092919081815260200182805461158e90612d7f565b80156115db5780601f106115b0576101008083540402835291602001916115db565b820191906000526020600020905b8154815290600101906020018083116115be57829003601f168201915b5050505050905060006115f960408051602081019091526000815290565b9050805160000361160b575092915050565b81511561163d578082604051602001611625929190612ee9565b60405160208183030381529060405292505050919050565b610e3884611d8c565b610823828260405180602001604052806000815250611dff565b6000828152600260205260409020546001600160a01b03166116db5760405162461bcd60e51b815260206004820152602e60248201527f45524337323155524953746f726167653a2055524920736574206f66206e6f6e60448201526d32bc34b9ba32b73a103a37b5b2b760911b6064820152608401610608565b6000828152600a602052604090206106a98282612f66565b60006001600160e01b0319821663780e9d6360e01b14806104d557506104d582611e32565b610b1084848484611e82565b610b1084848484611fb6565b61173a8282610a69565b6108235761174781611fc6565b611752836020611fd8565b604051602001611763929190613026565b60408051601f198184030181529082905262461bcd60e51b825261060891600401612a5a565b600063ffffffff8211156117ee5760405162461bcd60e51b815260206004820152602660248201527f53616665436173743a2076616c756520646f65736e27742066697420696e203360448201526532206269747360d01b6064820152608401610608565b5090565b60008160000361180457506000919050565b6000600161181184612174565b901c6001901b9050600181848161182a5761182a61309b565b048201901c905060018184816118425761184261309b565b048201901c9050600181848161185a5761185a61309b565b048201901c905060018184816118725761187261309b565b048201901c9050600181848161188a5761188a61309b565b048201901c905060018184816118a2576118a261309b565b048201901c905060018184816118ba576118ba61309b565b048201901c9050610849818285816118d4576118d461309b565b04612208565b60005b818310156119305760006118f1848461221e565b60008781526020902090915063ffffffff86169082015463ffffffff16111561191c5780925061192a565b611927816001612e84565b93505b506118dd565b509392505050565b60006104d582610969565b816001600160a01b0316836001600160a01b0316141580156119655750600081115b156106a9576001600160a01b038316156119f3576001600160a01b0383166000908152600d6020526040812081906119a09061223985612245565b91509150846001600160a01b03167fdec2bacdd2f05b59de34da9b523dff8be42e5e38e818c82fdb0bae774387a72483836040516119e8929190918252602082015260400190565b60405180910390a250505b6001600160a01b038216156106a9576001600160a01b0382166000908152600d602052604081208190611a299061227d85612245565b91509150836001600160a01b03167fdec2bacdd2f05b59de34da9b523dff8be42e5e38e818c82fdb0bae774387a7248383604051611a71929190918252602082015260400190565b60405180910390a25050505050565b60006001600160a01b0384163b15611b7657604051630a85bd0160e11b81526001600160a01b0385169063150b7a0290611ac49033908990889088906004016130b1565b6020604051808303816000875af1925050508015611aff575060408051601f3d908101601f19168201909252611afc918101906130ee565b60015b611b5c573d808015611b2d576040519150601f19603f3d011682016040523d82523d6000602084013e611b32565b606091505b508051600003611b545760405162461bcd60e51b815260040161060890612e97565b805181602001fd5b6001600160e01b031916630a85bd0160e11b149050610e38565b506001610e38565b6000807f7fffffffffffffffffffffffffffffff5d576e7357a4501ddfe92f46681b20a0831115611bb55750600090506003611c39565b6040805160008082526020820180845289905260ff881692820192909252606081018690526080810185905260019060a0016020604051602081039080840390855afa158015611c09573d6000803e3d6000fd5b5050604051601f1901519150506001600160a01b038116611c3257600060019250925050611c39565b9150600090505b94509492505050565b6000816004811115611c5657611c5661310b565b03611c5e5750565b6001816004811115611c7257611c7261310b565b03611cbf5760405162461bcd60e51b815260206004820152601860248201527f45434453413a20696e76616c6964207369676e617475726500000000000000006044820152606401610608565b6002816004811115611cd357611cd361310b565b03611d205760405162461bcd60e51b815260206004820152601f60248201527f45434453413a20696e76616c6964207369676e6174757265206c656e677468006044820152606401610608565b6003816004811115611d3457611d3461310b565b03610d505760405162461bcd60e51b815260206004820152602260248201527f45434453413a20696e76616c6964207369676e6174757265202773272076616c604482015261756560f01b6064820152608401610608565b6060611d9782610cf1565b6000611dae60408051602081019091526000815290565b90506000815111611dce5760405180602001604052806000815250610849565b80611dd884612289565b604051602001611de9929190612ee9565b6040516020818303038152906040529392505050565b611e09838361231c565b611e166000848484611a80565b6106a95760405162461bcd60e51b815260040161060890612e97565b60006001600160e01b031982166380ac58cd60e01b1480611e6357506001600160e01b03198216635b5e139f60e01b145b806104d557506301ffc9a760e01b6001600160e01b03198316146104d5565b6001811115611ef15760405162461bcd60e51b815260206004820152603560248201527f455243373231456e756d657261626c653a20636f6e7365637574697665207472604482015274185b9cd9995c9cc81b9bdd081cdd5c1c1bdc9d1959605a1b6064820152608401610608565b816001600160a01b038516611f4d57611f4881600880546000838152600960205260408120829055600182018355919091527ff3f7a9fe364faab93b216da50a3214154f22a0a2b415b23a84c8169e8b636ee30155565b611f70565b836001600160a01b0316856001600160a01b031614611f7057611f7085826124bf565b6001600160a01b038416611f8c57611f878161255c565b611faf565b846001600160a01b0316846001600160a01b031614611faf57611faf848261260b565b5050505050565b611fc184848361264f565b610b10565b60606104d56001600160a01b03831660145b60606000611fe7836002613121565b611ff2906002612e84565b67ffffffffffffffff81111561200a5761200a612b8b565b6040519080825280601f01601f191660200182016040528015612034576020820181803683370190505b509050600360fc1b8160008151811061204f5761204f612e00565b60200101906001600160f81b031916908160001a905350600f60fb1b8160018151811061207e5761207e612e00565b60200101906001600160f81b031916908160001a90535060006120a2846002613121565b6120ad906001612e84565b90505b6001811115612125576f181899199a1a9b1b9c1cb0b131b232b360811b85600f16601081106120e1576120e1612e00565b1a60f81b8282815181106120f7576120f7612e00565b60200101906001600160f81b031916908160001a90535060049490941c9361211e81613138565b90506120b0565b5083156108495760405162461bcd60e51b815260206004820181905260248201527f537472696e67733a20686578206c656e67746820696e73756666696369656e746044820152606401610608565b600080608083901c1561218957608092831c92015b604083901c1561219b57604092831c92015b602083901c156121ad57602092831c92015b601083901c156121bf57601092831c92015b600883901c156121d157600892831c92015b600483901c156121e357600492831c92015b600283901c156121f557600292831c92015b600183901c156104d55760010192915050565b60008183106122175781610849565b5090919050565b600061222d600284841861314f565b61084990848416612e84565b60006108498284612e71565b6000806122708561226b61225888611365565b6001600160e01b0316868863ffffffff16565b6126bf565b915091505b935093915050565b60006108498284612e84565b60606000612296836126f3565b600101905060008167ffffffffffffffff8111156122b6576122b6612b8b565b6040519080825280601f01601f1916602001820160405280156122e0576020820181803683370190505b5090508181016020015b600019016f181899199a1a9b1b9c1cb0b131b232b360811b600a86061a8153600a85049450846122ea57509392505050565b6001600160a01b0382166123725760405162461bcd60e51b815260206004820181905260248201527f4552433732313a206d696e7420746f20746865207a65726f20616464726573736044820152606401610608565b6000818152600260205260409020546001600160a01b0316156123d75760405162461bcd60e51b815260206004820152601c60248201527f4552433732313a20746f6b656e20616c7265616479206d696e746564000000006044820152606401610608565b6123e5600083836001611718565b6000818152600260205260409020546001600160a01b03161561244a5760405162461bcd60e51b815260206004820152601c60248201527f4552433732313a20746f6b656e20616c7265616479206d696e746564000000006044820152606401610608565b6001600160a01b038216600081815260036020908152604080832080546001019055848352600290915280822080546001600160a01b0319168417905551839291907fddf252ad1be2c89b69c2b068fc378daa952ba7f163c4a11628f55a4df523b3ef908290a4610823600083836001611724565b600060016124cc84610969565b6124d69190612e71565b600083815260076020526040902054909150808214612529576001600160a01b03841660009081526006602090815260408083208584528252808320548484528184208190558352600790915290208190555b5060009182526007602090815260408084208490556001600160a01b039094168352600681528383209183525290812055565b60085460009061256e90600190612e71565b6000838152600960205260408120546008805493945090928490811061259657612596612e00565b9060005260206000200154905080600883815481106125b7576125b7612e00565b60009182526020808320909101929092558281526009909152604080822084905585825281205560088054806125ef576125ef613171565b6001900381819060005260206000200160009055905550505050565b600061261683610969565b6001600160a01b039093166000908152600660209081526040808320868452825280832085905593825260079052919091209190915550565b6001600160a01b03831661266e5761266b600e61227d83612245565b50505b6001600160a01b03821661268d5761268a600e61223983612245565b50505b6001600160a01b038381166000908152600c60205260408082205485841683529120546106a992918216911683611943565b6000806126dd846126cf43611789565b6126d8866127cb565b612834565b6001600160e01b03918216969116945092505050565b60008072184f03e93ff9f4daa797ed6e38ed64bf6a1f0160401b83106127325772184f03e93ff9f4daa797ed6e38ed64bf6a1f0160401b830492506040015b6d04ee2d6d415b85acef8100000000831061275e576d04ee2d6d415b85acef8100000000830492506020015b662386f26fc10000831061277c57662386f26fc10000830492506010015b6305f5e1008310612794576305f5e100830492506008015b61271083106127a857612710830492506004015b606483106127ba576064830492506002015b600a83106104d55760010192915050565b60006001600160e01b038211156117ee5760405162461bcd60e51b815260206004820152602760248201527f53616665436173743a2076616c756520646f65736e27742066697420696e20326044820152663234206269747360c81b6064820152608401610608565b82546000908190801561297d576000612852876112b6600185612e71565b60408051808201909152905463ffffffff8082168084526401000000009092046001600160e01b0316602084015291925090871610156128d45760405162461bcd60e51b815260206004820152601760248201527f436865636b706f696e743a20696e76616c6964206b65790000000000000000006044820152606401610608565b805163ffffffff80881691160361291d57846128f5886112b6600186612e71565b80546001600160e01b03929092166401000000000263ffffffff90921691909117905561296d565b6040805180820190915263ffffffff80881682526001600160e01b0380881660208085019182528b54600181018d5560008d81529190912094519151909216640100000000029216919091179101555b6020015192508391506122759050565b50506040805180820190915263ffffffff80851682526001600160e01b0380851660208085019182528854600181018a5560008a815291822095519251909316640100000000029190931617920191909155905081612275565b6001600160e01b031981168114610d5057600080fd5b6000602082840312156129ff57600080fd5b8135610849816129d7565b60005b83811015612a25578181015183820152602001612a0d565b50506000910152565b60008151808452612a46816020860160208601612a0a565b601f01601f19169290920160200192915050565b6020815260006108496020830184612a2e565b600060208284031215612a7f57600080fd5b5035919050565b80356001600160a01b0381168114612a9d57600080fd5b919050565b60008060408385031215612ab557600080fd5b612abe83612a86565b946020939093013593505050565b600080600060608486031215612ae157600080fd5b612aea84612a86565b9250612af860208501612a86565b9150604084013590509250925092565b60008060408385031215612b1b57600080fd5b82359150612b2b60208401612a86565b90509250929050565b600060208284031215612b4657600080fd5b61084982612a86565b60008060408385031215612b6257600080fd5b612b6b83612a86565b915060208301358015158114612b8057600080fd5b809150509250929050565b634e487b7160e01b600052604160045260246000fd5b600067ffffffffffffffff80841115612bbc57612bbc612b8b565b604051601f8501601f19908116603f01168101908282118183101715612be457612be4612b8b565b81604052809350858152868686011115612bfd57600080fd5b858560208301376000602087830101525050509392505050565b60008060008060808587031215612c2d57600080fd5b612c3685612a86565b9350612c4460208601612a86565b925060408501359150606085013567ffffffffffffffff811115612c6757600080fd5b8501601f81018713612c7857600080fd5b612c8787823560208401612ba1565b91505092959194509250565b60008060008060008060c08789031215612cac57600080fd5b612cb587612a86565b95506020870135945060408701359350606087013560ff81168114612cd957600080fd5b9598949750929560808101359460a0909101359350915050565b60008060408385031215612d0657600080fd5b612d0f83612a86565b9150602083013567ffffffffffffffff811115612d2b57600080fd5b8301601f81018513612d3c57600080fd5b612d4b85823560208401612ba1565b9150509250929050565b60008060408385031215612d6857600080fd5b612d7183612a86565b9150612b2b60208401612a86565b600181811c90821680612d9357607f821691505b60208210810361153857634e487b7160e01b600052602260045260246000fd5b6020808252602d908201527f4552433732313a2063616c6c6572206973206e6f7420746f6b656e206f776e6560408201526c1c881bdc88185c1c1c9bdd9959609a1b606082015260800190565b634e487b7160e01b600052603260045260246000fd5b60208082526025908201527f4552433732313a207472616e736665722066726f6d20696e636f72726563742060408201526437bbb732b960d91b606082015260800190565b634e487b7160e01b600052601160045260246000fd5b818103818111156104d5576104d5612e5b565b808201808211156104d5576104d5612e5b565b60208082526032908201527f4552433732313a207472616e7366657220746f206e6f6e20455243373231526560408201527131b2b4bb32b91034b6b83632b6b2b73a32b960711b606082015260800190565b60008351612efb818460208801612a0a565b835190830190612f0f818360208801612a0a565b01949350505050565b601f8211156106a957600081815260208120601f850160051c81016020861015612f3f5750805b601f850160051c820191505b81811015612f5e57828155600101612f4b565b505050505050565b815167ffffffffffffffff811115612f8057612f80612b8b565b612f9481612f8e8454612d7f565b84612f18565b602080601f831160018114612fc95760008415612fb15750858301515b600019600386901b1c1916600185901b178555612f5e565b600085815260208120601f198616915b82811015612ff857888601518255948401946001909101908401612fd9565b50858210156130165787850151600019600388901b60f8161c191681555b5050505050600190811b01905550565b7f416363657373436f6e74726f6c3a206163636f756e742000000000000000000081526000835161305e816017850160208801612a0a565b7001034b99036b4b9b9b4b733903937b6329607d1b601791840191820152835161308f816028840160208801612a0a565b01602801949350505050565b634e487b7160e01b600052601260045260246000fd5b6001600160a01b03858116825284166020820152604081018390526080606082018190526000906130e490830184612a2e565b9695505050505050565b60006020828403121561310057600080fd5b8151610849816129d7565b634e487b7160e01b600052602160045260246000fd5b80820281158282048414176104d5576104d5612e5b565b60008161314757613147612e5b565b506000190190565b60008261316c57634e487b7160e01b600052601260045260246000fd5b500490565b634e487b7160e01b600052603160045260246000fdfea264697066735822122076fd16ceb2226b3cba9db3c944afddd932e261c9104c83cece13abedd069624964736f6c63430008130033",
    "sourcePath": "/Users/pc/Desktop/code/loro-app/backend/contracts/Pandemonium.sol",
    "compiler": {
        "name": "solc",
        "version": "0.8.19+commit.7dd6d404"
    },
    "functionHashes": {
        "DEFAULT_ADMIN_ROLE()": "a217fddf",
        "DOMAIN_SEPARATOR()": "3644e515",
        "MINTER_ROLE()": "d5391393",
        "approve(address,uint256)": "095ea7b3",
        "balanceOf(address)": "70a08231",
        "delegate(address)": "5c19a95c",
        "delegateBySig(address,uint256,uint256,uint8,bytes32,bytes32)": "c3cda520",
        "delegates(address)": "587cde1e",
        "getApproved(uint256)": "081812fc",
        "getPastTotalSupply(uint256)": "8e539e8c",
        "getPastVotes(address,uint256)": "3a46b1a8",
        "getRoleAdmin(bytes32)": "248a9ca3",
        "getVotes(address)": "9ab24eb0",
        "grantRole(bytes32,address)": "2f2ff15d",
        "hasRole(bytes32,address)": "91d14854",
        "isApprovedForAll(address,address)": "e985e9c5",
        "name()": "06fdde03",
        "nonces(address)": "7ecebe00",
        "ownerOf(uint256)": "6352211e",
        "renounceRole(bytes32,address)": "36568abe",
        "revokeRole(bytes32,address)": "d547741f",
        "safeMint(address,string)": "d204c45e",
        "safeTransferFrom(address,address,uint256)": "42842e0e",
        "safeTransferFrom(address,address,uint256,bytes)": "b88d4fde",
        "setApprovalForAll(address,bool)": "a22cb465",
        "supportsInterface(bytes4)": "01ffc9a7",
        "symbol()": "95d89b41",
        "tokenByIndex(uint256)": "4f6ccce7",
        "tokenOfOwnerByIndex(address,uint256)": "2f745c59",
        "tokenURI(uint256)": "c87b56dd",
        "totalSupply()": "18160ddd",
        "transferFrom(address,address,uint256)": "23b872dd"
    },
    "gasEstimates": {
        "creation": {
            "codeDepositCost": "2546600",
            "executionCost": "infinite",
            "totalCost": "infinite"
        },
        "external": {
            "DEFAULT_ADMIN_ROLE()": "306",
            "DOMAIN_SEPARATOR()": "infinite",
            "MINTER_ROLE()": "261",
            "approve(address,uint256)": "infinite",
            "balanceOf(address)": "2657",
            "delegate(address)": "infinite",
            "delegateBySig(address,uint256,uint256,uint8,bytes32,bytes32)": "infinite",
            "delegates(address)": "2656",
            "getApproved(uint256)": "4815",
            "getPastTotalSupply(uint256)": "infinite",
            "getPastVotes(address,uint256)": "infinite",
            "getRoleAdmin(bytes32)": "2534",
            "getVotes(address)": "infinite",
            "grantRole(bytes32,address)": "infinite",
            "hasRole(bytes32,address)": "2699",
            "isApprovedForAll(address,address)": "infinite",
            "name()": "infinite",
            "nonces(address)": "2661",
            "ownerOf(uint256)": "2584",
            "renounceRole(bytes32,address)": "29091",
            "revokeRole(bytes32,address)": "infinite",
            "safeMint(address,string)": "infinite",
            "safeTransferFrom(address,address,uint256)": "infinite",
            "safeTransferFrom(address,address,uint256,bytes)": "infinite",
            "setApprovalForAll(address,bool)": "26728",
            "supportsInterface(bytes4)": "infinite",
            "symbol()": "infinite",
            "tokenByIndex(uint256)": "6782",
            "tokenOfOwnerByIndex(address,uint256)": "4976",
            "tokenURI(uint256)": "infinite",
            "totalSupply()": "2327",
            "transferFrom(address,address,uint256)": "infinite"
        },
        "internal": {
            "_afterTokenTransfer(address,address,uint256,uint256)": "infinite",
            "_beforeTokenTransfer(address,address,uint256,uint256)": "infinite",
            "_burn(uint256)": "infinite"
        }
    }
}